:020000042000DA
:10000000000001208901002091030020A1030020AD
:10001000C1030020D1030020E10300200000000004
:1000200000000000000000000000000003020020AB
:100030000502002000000000070200200902002045
:10004000F10300200D0200200F0200201102002009
:1000500013020020150200201702002019020020C0
:100060001B0200201D020020791C0020951C00208E
:100070002302002025020020E9150020290200208B
:100080002B0200202D0200202F0200203102002030
:100090003302002035020020370200203902002000
:1000A00001040020110400203F0200204102002032
:1000B00043020020210400204702002049020020C2
:1000C0004B0200204D0200204F0200205102002070
:1000D0005302002055020020570200205902002040
:1000E0005B0200205D0200205F0200206102002010
:1000F00063020020650200206702002069020020E0
:100100006B0200206D0200206F02002071020020AF
:10011000730200207502002077020020790200207F
:100120007B0200207D0200207F020020810200204F
:10013000830200208502002087020020890200201F
:100140008B0200208D0200208F02002091020020EF
:1001500093020020950200209702002099020020BF
:100160009B0200209D0200209F020020A10200208F
:10017000A3020020A5020020A7020020A90200205F
:10018000AB020020AD0200204948804749480028C2
:100190000BD1494849494A4A884206D091421CBF7E
:1001A00050F8043B41F8043BF8D146484649474AD9
:1001B000884206D091421CBF50F8043B41F8043BF2
:1001C000F8D143484349444A914218BF41F8040BCF
:1001D000FAD1000000000000000000000000000054
:1001E000DFF8F8000FF2030E00474FF000004FF069
:1001F0000001DFF8ECF0FEE7FEE7FEE7FEE7FEE7D2
:10020000FEE7FEE7FEE7FEE7FEE7FEE7FEE7FEE7C6
:10021000FEE7FEE7FEE7FEE7FEE7FEE7FEE7FEE7B6
:10022000FEE7FEE7FEE7FEE7FEE7FEE7FEE7FEE7A6
:10023000FEE7FEE7FEE7FEE7FEE7FEE7FEE7FEE796
:10024000FEE7FEE7FEE7FEE7FEE7FEE7FEE7FEE786
:10025000FEE7FEE7FEE7FEE7FEE7FEE7FEE7FEE776
:10026000FEE7FEE7FEE7FEE7FEE7FEE7FEE7FEE766
:10027000FEE7FEE7FEE7FEE7FEE7FEE7FEE7FEE756
:10028000FEE7FEE7FEE7FEE7FEE7FEE7FEE7FEE746
:10029000FEE7FEE7FEE7FEE7FEE7FEE7FEE7FEE736
:1002A000FEE7FEE7FEE7FEE7FEE7FEE7FEE7704754
:1002B0004D25002000000000E4020020E4020020A0
:1002C000003100200031002000310020643900207E
:1002D00000000000643900205C3B0020452600201F
:0402E00031040020C5
:1002E40010B5054C237833B9044B13B10448AFF36C
:1002F40000800123237010BD643900200000000039
:10030400DC300020084B10B51BB108480849AFF396
:1003140000800848036803B910BD074B002BFBD0CD
:10032400BDE81040184700BF00000000DC3000208A
:1003340068390020003100200000000080B48BB038
:1003440000AF78607B681B687B627B6804331B6842
:100354003B627B6808331B68FB617B680C331B685A
:10036400BB617B6810331B687B617B6814331B683B
:100374003B617B6818331B68FB607B681C331B681C
:10038400BB602C37BD465DF8047B7047684620F09F
:1003940007018D4681B400AFFEE700BF684620F038
:1003A40007018D4681B400AF1EF0040F0CBFEFF3BC
:1003B4000880EFF30980FFF7C1BFFEE7684620F02D
:1003C40007018D4681B400AFFEE700BF684620F008
:1003D40007018D4681B400AFFEE700BF684620F0F8
:1003E40007018D4681B400AFFEE700BF684620F0E8
:1003F40007018D4681B400AFFEE700BF684620F0D8
:1004040007018D4681B400AFFEE700BF684620F0C7
:1004140007018D4681B400AFFEE700BF684620F0B7
:1004240007018D4681B400AFFEE700BF80B582B0FE
:1004340000AF00237B6000F0F3FF00F061FC00F0EC
:100444000BFC7860FBE700BF80B483B000AF0346C9
:10045400FB71094997F907305B09FA7902F01F0229
:10046400012000FA02F2603341F823200C37BD4624
:100474005DF8047B704700BF00E100E080B5ADF596
:10048400826D00AF3B1D186007F10C031A464FF450
:100494008063104600211A4602F0FEFB0023C7F8D1
:1004A4000C343B1D07F10C02186811464FF48062AE
:1004B40001F078FBC7F80C04D7F80C3407F10C02F0
:1004C400104600211A4600F093FC0A20FFF7BCFFF7
:1004D40007F58267BD4680BD80B586B000AFF86081
:1004E4007B600B467B8113467B7200237B61002378
:1004F4007B827B695A1C7A611A46FB681344022288
:100504001A707B695A1C7A611A46FB6813447A890B
:10051400D2B21A707B695A1C7A611A46FB6813447A
:100524007A89120A92B2D2B21A707B695A1C7A6121
:100534001A46FB6813447A7A1A707B695A1C7A61EA
:100544001A46FB6813443A6AD2B21A707B695A1C81
:100554007A611A46FB6813443A6A1212D2B21A70CC
:100564007B68002B0FD03B6A002B0CDD7B69FA689B
:100574001A443B6A104679681A4602F017FB7A69F6
:100584003B6A13447B617B69013BF86801211A468D
:1005940000F062F803467B827B695A1C7A611A4632
:1005A400FB6813447A8AD2B21A707B695A1C7A6146
:1005B4001A46FB68134403221A707B6918461837DD
:1005C400BD4680BD80B58AB000AF78603960002335
:1005D40087F8233000237B620023FB610023BB6187
:1005E40006237B6100233B6100F0DCFB02467B6950
:1005F4009A4229DB786800217A6900F0D1FC78629C
:100604007B68FB60FB689B889BB23B617A693B69B2
:1006140013440233BB6100F0C5FB0246BB699A4236
:100624000FDB78680021BA6900F054FC78627A6ABA
:10063400BB699A4202D000237B6208E0BB697B62FB
:1006440005E000237B6202E000237B6200BF7B6A3B
:1006540018462837BD4680BD80B489B000AFF86025
:10066400B9607A600023FB6100237B6100233B6156
:100674000023BB610023BB610EE0BA68BB6913446D
:100684001A46FB6813441B787B61FA697B6913443F
:10069400FB61BB690133BB61BA697B689A42ECDBDD
:1006A400FB695B42DBB23B613B69DBB21846243732
:1006B400BD465DF8047B704780B586B000AF7860B6
:1006C400396000237B610023FB740023BB747B68C7
:1006D400FB60FB681B78022B15D13B68033B7868F1
:1006E40001211A46FFF7B8FF0346BB743B68023B7F
:1006F4007A6813441B78FB74FA7CBB7C9A4204D05E
:1007040021237B6101E020237B617B691846183734
:10071400BD4680BD90B5ADF2646D02AF3B1D18605F
:100724003B461960002387F85736062387F8563668
:100734000023C7F850360023C7F844360023C7F80F
:1007440040360023C7F84C36002387F83F3607F5B8
:1007540006731A464FF48063104600211A4602F0CD
:100764009BFA07F118031A464FF400731046002150
:100774001A4602F091FA0423C7F8483600F08CFCBC
:10078400C7F838063B1D1B68C7F834363A1D3B468C
:1007940010681968FFF790FFC7F85006D7F850366D
:1007A400002B40F0FD81D7F83436B3F801309BB20A
:1007B40048F20302934200F0258148F20302934277
:1007C4001BDCB3F5004F00F0F380B3F5004F09DCF8
:1007D400B3F5E24F00F0708147F20112934200F04A
:1007E4004181B4E148F20102934200F0EF8048F203
:1007F4000202934200F0F880A9E148F20602934213
:1008040000F09A8048F20602934209DC48F204029E
:10081400934200F00E8148F2050293420FD096E114
:10082400B3F5104F00F0348149F20102934200F015
:100834005D8148F20702934200F0B38087E101230F
:1008440087F857360623C7F84436A44B1A68A44BD6
:100854001B681344A34A13600023C7F84C3666E0B0
:10086400A04B1968D7F844363A1D12681A44D7F8D1
:1008740034369B889BB2084611461A46002301F081
:1008840053FC034687F83F3697F83F36002B03D0D6
:1008940097F83F36052B26D1924B1968D7F8443682
:1008A4003A1D12681A44D7F834369B889BB208461E
:1008B40011461A4601F0CCFD034687F83F3697F8F7
:1008C4003F36002B04D097F83F36C7F8503632E055
:1008D400D7F834369B889BB21A46814B1B68134465
:1008E4007F4A136027E097F83F36032B15D17D4BE1
:1008F4001A68D7F834369B889BB21046194601F023
:1009040007FD034687F83F3697F83F36002B09D09A
:1009140097F83F36C7F8503604E097F83F36C7F8E3
:10092400503608E0D7F84C360133C7F84C36D7F8C0
:100934004C36022B94DD0AE1012387F857363B1D20
:100944001B68C7F83036D7F83036D3F80A30C7F802
:100954004836D7F84836B3F5007F03DD2423C7F8BB
:1009640050361DE0D7F83036D3F8063003F1204373
:10097400C7F82C36D7F82C16D7F8483607F11802E2
:10098400084611461A4601F04BFD034687F83F36E8
:1009940097F83F36002B03D02523C7F85036D6E00E
:1009A400D5E0514B01221A60012387F85736CEE077
:1009B4004A4B4FF0C0421A60494B00221A604A4B1E
:1009C40000221A60012387F85736C0E03B1D1B68DC
:1009D400C7F82836D7F82836D3F806303F4A1360CC
:1009E400012387F85736B2E03B1D1B68C7F824364D
:1009F400D7F82436D3F80630394A1360012387F830
:100A04005736A4E03B1D1B68C7F82036344B1B68DF
:100A14001B0C1B04324A1360D7F82036D3F8062087
:100A24002F4B1B6813432E4A1360012387F8573654
:100A34008DE03B1D1B68C7F81C36294B1B6823F44B
:100A44007F6323F00F03264A1360D7F81C36D3F8CC
:100A54000620234B1B681343214A1360012387F8A4
:100A6400573674E03B1D1B68C7F81836D7F818369C
:100A74009A1DD7F818369B889BB21046194600F089
:100A840063FC012000F03EFB012387F857365EE04B
:100A94002023C7F84836D7F8383603F11002D7F8C0
:100AA400483607F11801084611461A4602F07EF846
:100AB400012387F857364AE000F0A2FB034687F883
:100AC4003F3697F83F36002B03D097F83F36C7F8E8
:100AD4005036012387F8573639E000BF043100202F
:100AE40080390020843900203400015000F0D6FB06
:100AF40003461A4607F108031A6000F0E1FB0346B7
:100B04001A4607F108035A6000F0FAFB03461A4636
:100B140007F108039A6000F005FC03461A4607F142
:100B24000803DA601023C7F8483607F11802D7F82B
:100B34004436D118D7F8483607F10802084611465A
:100B44001A4602F033F8012387F8573600BFD7F866
:100B54005036002B48D0152387F85636D7F8503630
:100B6400DAB207F118031A70D7F850361B12DAB24A
:100B740007F118035A70D7F850361B14DAB207F18C
:100B840018039A70D7F850361B0EDAB207F118031F
:100B9400DA700423C7F84836012387F8573623E070
:100BA400152387F85636D7F85036DAB207F118030A
:100BB4001A70D7F850361B12DAB207F118035A70BC
:100BC400D7F850361B14DAB207F118039A70D7F825
:100BD40050361B0EDAB207F11803DA700423C7F893
:100BE4004836012387F8573697F85736002B1ED01E
:100BF400D7F83436B3F8013099B207F5067097F890
:100C0400562607F11804D7F8483600932346FFF711
:100C140063FCC7F8400600F0EDFB0146D7F8403608
:100C240007F50672084611461A4600F087FFD7F802
:100C34003436B3F801309BB2B3F5E04F05D14FF42D
:100C44007A7000F043FD00F01DFCD7F850361846CA
:100C540007F25C67BD4690BD80B5ADF5836D00AF0E
:100C64003B1D1A464FF48063104600211A4602F0D9
:100C740013F80023C7F80C340023C7F80834002302
:100C840087F81734012387F807340023C7F8103492
:100C940000F0D0FCC7F810043B1D18464FF48061E7
:100CA400FFF790FCC7F80804D7F80834002B23DDBD
:100CB400D7F8100400F0CAFC0346C72B0DD900F086
:100CC400B9FCC7F810040D4A97F81734136097F865
:100CD400173483F0010387F817343B1D1846D7F8FF
:100CE4000814FFF717FDC7F80C043B1D1846002134
:100CF4004FF4806201F0D0FFCEE700BF3400015012
:100D040080B586B002AF0023FB603A1D0023009338
:100D1400104648F2021100220023FFF7DDFBF860C1
:100D240000F068FB0146FB683A1D084611461A4666
:100D340000F004FFFB6818461037BD4680BD00BFB5
:100D440080B582B000AF00237B600D4B00221A6097
:100D54000B4B00225A604FF4806001F099FC03466B
:100D64001A46074B9A60064B9B68184600214FF4BD
:100D7400806201F091FF7B6818460837BD4680BD4C
:100D84008839002080B483B000AF00237B604FF427
:100D940080637B607B6818460C37BD465DF8047B36
:100DA400704700BF80B582B000AF00237B6000F0C5
:100DB40031FB0E4B1A680D4B5B689A4205DC0B4BFA
:100DC4005A680A4B1B68D31A08E0FFF7DBFF024698
:100DD400064B5B681A44054B1B68D31A7B6000F012
:100DE40013FB7B6818460837BD4680BD8839002050
:100DF40090B587B000AFF860B9607A6000237B617A
:100E040000F008FB324B5A687B68D418FFF7BAFF2E
:100E140003469C4223DBFFF7B5FF02462C4B5B687D
:100E2400D31A3B612A4B9B68294A52689918BB68BC
:100E3400FA681A443B69084611461A4601F0B6FEA0
:100E4400234B9868BA683B6913441A46FB6899189F
:100E54007A683B69D31A1A4601F0A8FE0DE01C4BD0
:100E64009B681B4A52689918BB68FA681A447B68E5
:100E7400084611461A4601F099FE154B5A687B68DC
:100E8400D418FFF77FFF034694FBF3F203FB02F34E
:100E9400E31A0F4A53600E4B1A680D4B5B689A4273
:100EA40005DC0B4B5A680A4B1B68D31A08E0FFF7A2
:100EB40069FF0246064B5B681A44054B1B68D31A4C
:100EC4007B6100F0A1FA7B6918461C37BD4690BDD2
:100ED4008839002090B587B000AFF860B9607A60B7
:100EE40000237B6100F096FA2C4B1A682B4B5B684D
:100EF4009A4201D100234DE0284B1A687B68D4182C
:100F0400FFF740FF03469C4223DDFFF73BFF024609
:100F1400224B1B68D31A3B61BB68FA68D1181F4B7C
:100F24009B681E4A12681A443B69084611461A46D1
:100F340001F03CFEBA683B6913441A46FB689818F2
:100F4400164B99687A683B69D31A1A4601F02EFE4B
:100F54000DE0BB68FA68D118104B9B680F4A126801
:100F64001A447B68084611461A4601F01FFE0B4BD3
:100F74001A687B68D418FFF705FF034694FBF3F265
:100F840003FB02F3E31A054A13607B687B6100F0FC
:100F94003BFA7B6918461C37BD4690BD8839002052
:100FA40090B587B000AFF860B9607A6000237B61C8
:100FB40000F030FA254B1A68244B5B689A4201D141
:100FC40000233FE0214B1A687B68D418FFF7DAFE50
:100FD40003469C4223DDFFF7D5FE02461B4B1B68EC
:100FE400D31A3B61BB68FA68D118184B9B68174A3F
:100FF40012681A443B69084611461A4601F0D6FDA8
:10100400BA683B6913441A46FB6898180F4B9968F1
:101014007A683B69D31A1A4601F0C8FD0DE0BB6833
:10102400FA68D118094B9B68084A12681A447B680D
:10103400084611461A4601F0B9FD7B687B6100F051
:10104400E3F97B6918461C37BD4690BD88390020FA
:1010540080B582B000AF00237B6000233B600D4865
:1010640000214FF4807201F017FE00233B6009E079
:1010740000F01CF878607B68002B00D105E03B6829
:1010840001333B603B68022BF2DD7B68184608376E
:10109400BD4680BDD839002080B400AF024B18464D
:1010A400BD465DF8047B7047D839002080B586B012
:1010B40000AF0023FB7400237B610023FB604FF42B
:1010C4008073BB604FF47C337B600023FB60FB6860
:1010D400022B10DC7B681A46BB68104608491A4686
:1010E40001F09EF90346FB74FB7C002B00D102E067
:1010F400FB7C7B6100BF7B6918461837BD4680BD09
:10110400D839002080B58AB000AF78600023FB7521
:1011140000237B6200233B624FF48073FB61002356
:101124003B61334BFB600023BB600023BB617B68E6
:10113400012B06D10023BB608023FB612D4BBB61D7
:1011440016E07B68022B06D18023BB604023FB6141
:10115400294BBB610CE07B68032B06D1C023BB6029
:101164004023FB61254BBB6102E04FF0FF333AE0C3
:10117400FA68BB6813443B6100233B622FE03A6981
:10118400FB691046B9691A46002300F0CDFF0346F7
:10119400FB75FB7D002B02D0FB7D052B0FD13A693B
:1011A400FB69104613491A4601F052F90346FB75D0
:1011B400FB7D002B02D0FB7D7B6213E012E0FB7D04
:1011C400032B06D13A69FB691046194601F0A0F8D1
:1011D40002E0FB7D7B6205E03B6A01333B623B6AD4
:1011E400022BCCDD7B6A18462837BD4680BD00BF84
:1011F40000F00360D8390020583A0020983A0020C3
:1012040080B586B000AF0023FB7300237B6100230D
:101214003B614FF48073BB601E4B7B6000233B61DA
:101224002FE07A68BB6810461B491A46002300F079
:101234007BFF0346FB73FB7B002B02D0FB7B052B60
:101244000FD17A68BB68104613491A4601F000F9B9
:101254000346FB73FB7B002B02D0FB7B7B6113E01B
:1012640012E0FB7B032B06D17A68BB681046194653
:1012740001F04EF802E0FB7B7B6105E03B69013342
:101284003B613B69022BCCDD7B6918461837BD46B0
:1012940080BD00BF00F00360D839002080B483B063
:1012A40000AF00237B60054B1B687B607B6818469E
:1012B4000C37BD465DF8047B704700BFD839002069
:1012C40080B483B000AF00237B60054B5B687B6018
:1012D4007B6818460C37BD465DF8047B704700BF39
:1012E400D839002080B483B000AF78607B68034AAB
:1012F40053600C37BD465DF8047B7047D839002035
:1013040080B483B000AF00237B60054B9B687B6097
:101314007B6818460C37BD465DF8047B704700BFF8
:10132400D839002080B483B000AF00237B60054B24
:10133400DB687B607B6818460C37BD465DF8047B30
:10134400704700BFD839002080B582B000AF786004
:1013540039603B68034879681A4601F027FC08376E
:10136400BD4680BDE839002080B483B000AF034699
:10137400FB71084997F907305B09FA7902F01F02FB
:10138400012000FA02F241F823200C37BD465DF833
:10139400047B704700E100E080B483B000AF0346F3
:1013A400FB71094997F907305B09FA7902F01F02CA
:1013B400012000FA02F2203341F823200C37BD4605
:1013C4005DF8047B704700BF00E100E080B400AF2B
:1013D400BFF34F8F0549054BDB6803F4E062044B10
:1013E4001343CB60BFF34F8F00BFFDE700ED00E078
:1013F4000400FA0580B400AF024B1846BD465DF800
:10140400047B7047183B002080B500AF0A20FFF72B
:10141400ABFF80BD80B500AF0A20FFF7BDFF80BDE4
:1014240080B500AF144B0022DA66144B4FF0005223
:101434009A60FFF785FCFFF70BFEFFF741FF0346B9
:10144400642B05D06420FFF74DFF0120FFF75AFEFF
:10145400FFF7D0FF034618464FF46121032200F042
:1014640049FBFFF7C7FF034618460549002200F071
:10147400CFFB00F0CBF880BD0080034000ED00E01E
:101484008104002080B500AFFFF7A0FF80BD00BF3E
:1014940080B483B000AF0346FB71084997F9073065
:1014A4005B09FA7902F01F02012000FA02F241F806
:1014B40023200C37BD465DF8047B704700E100E053
:1014C40080B483B000AF0346FB71094997F9073034
:1014D4005B09FA7902F01F02012000FA02F22033BC
:1014E40041F823200C37BD465DF8047B704700BFEC
:1014F40000E100E080B483B000AF0346FB7109490A
:1015040097F907305B09FA7902F01F02012000FA0B
:1015140002F2603341F823200C37BD465DF8047BAA
:10152400704700BF00E100E080B582B000AF034621
:10153400FB710E20FFF7C4FF0F4A0F4B9B6C23F087
:10154400400393644FF0402300225A650B4B002262
:10155400C3F88021094B0022C3F88821074AFB798C
:10156400C2F884314FF0402301221A610E20FFF7A4
:10157400C1FF0837BD4680BD00800340000008421B
:1015840080B400AF034B0122C3F88021BD465DF84F
:10159400047B70470000084280B483B000AF7860D9
:1015A4004FF040227B6853600C37BD465DF8047BE6
:1015B400704700BF80B500AF034B0122C3F88821F8
:1015C4000E20FFF765FF80BD0000084280B400AF25
:1015D4004FF0402301221A61BFF34F8FBD465DF8DF
:1015E400047B7047684620F007018D4689B500AF3B
:1015F400054B1B680133044A1360FFF7E7FFBD4640
:10160400BDE88940854670479439002080B582B092
:1016140000AF074B7B600020FFF786FF7868FFF779
:10162400BBFFFFF7ADFFFFF7C5FF0837BD4680BD21
:10163400E022020080B400AF034B1B681846BD468D
:101644005DF8047B704700BF9439002090B585B0E5
:1016540000AF7860FFF7EEFF02467B689A4206D33C
:10166400FFF7E8FF02467B68D31AFB6006E07B685D
:10167400DC43FFF7DFFF0346E31AFB60FB68184611
:101684001437BD4690BD00BF80B485B000AF78600C
:101694000023FB600023BB600023BB600CE000233D
:1016A400FB6003E000BFFB680133FB60FB68012BB8
:1016B400F8D9BB680133BB60BA687B689A42EED341
:1016C4001437BD465DF8047B704700BF80B584B015
:1016D40000AF78600023FB6006E04FF47A70FFF7F8
:1016E400D3FFFB680133FB60FA687B689A42F4D34A
:1016F4001037BD4680BD00BF70B5094D1C462B6830
:10170400164633B907488168027B00F0F3F90123D8
:101714002B6004483146224600F010FA204670BD82
:1017240098390020183B002008B50B4B1A680AB9F9
:101734000A4A1A601968EFF308820B18934206D913
:1017440000200121064A1923FFF7D6FFFEE7024ACB
:101754000846136008BD00BF9C3900205C3B002094
:10176400A03000204109012300F01F00024A8340F9
:1017740042F82130704700BF00E100E04309012234
:1017840000F01F0002498240603341F82320704773
:1017940000E100E000F0704303EB8101C0F31300AB
:1017A40001F10071400101230B50704700F07043B8
:1017B40003EB8101C0F3130001F100714001002328
:1017C4000B50704700F0704303EB8101C0F313002A
:1017D40001F1007140010858C0B270471E4B30B58A
:1017E40098421A4603D01D4B984200D000BE0169AE
:1017F40001B900BE436903B900BE904202D0174A42
:10180400904228D139B333B30268417B127DD2B2FE
:101814001143920641730CD4826943699A421AD1E6
:10182400BDE8304000234361006801210430FFF724
:10183400BDBF82699B1A102B28BF102300229A4235
:10184400EAD08469056901682C5D01320C708169F4
:1018540001318161F3E730BD183B0020D83A002004
:1018640010B504460068037A03F00F030C2B4BD821
:10187400DFE803F0074A090F0B4A0D4A4A4A4A4A6D
:101884000B00A36A3BE0636A39E0236A37E0E3694B
:1018940035E028300021FFF795FF28B1E36A0BB942
:1018A40000BE01E020469847206801212830FFF758
:1018B40089FF28B1236B0BB900BE01E0204698478D
:1018C400206802212830FFF77DFF28B1636B0BB934
:1018D40000BE01E020469847206803212830FFF726
:1018E40071FF28B1A36B0BB900BE01E020469847F5
:1018F400206804212830FFF765FF30B1E36B1BB18A
:101904002046BDE81040184700BE10BD2DE9F8433D
:10191400714B0446984298460E4617466F4B04D0C6
:101924006F4A904213D000BE11E04FF08042026033
:101934000A2202719A6C4FF4806142F080029A6428
:10194400684AC2F880119A6C22F080020FE0664A5D
:101954004FF4006122600B2222719A6C42F480726F
:101964009A64604AC2F880119A6C22F480729A6474
:10197400236800251D71236801211D722068083029
:10198400FFF708FF206802210830FFF703FF2068F3
:1019940029460830FFF7FEFE206804211030FFF7C7
:1019A40005FF206805211030FFF700FF20680121A2
:1019B4003430FFF7FBFE206829463430FFF7F6FE8B
:1019C400206801213830FFF7F1FE2068052130300E
:1019D400FFF7ECFE206806213030FFF7E7FE2068B1
:1019E40007213030FFF7E2FE206803213830FFF78B
:1019F400DDFE2368444583F84450236883F8485047
:101A0400236883F84C5002D0354B9C4211D1A66018
:101A140000F0BAFD44450CBF344B354B1B68DB006A
:101A2400B3FBF6F94FEAD913B3F5803F4FEA5905F2
:101A340001D300BE3CE0012B20685FFA83F823D970
:101A4400A5EB8315A5EBC3134B440C300721A3EB83
:101A54004505FFF79FFE2268C9F3C7331371236856
:101A6400072183F8008020680C30FFF79FFE206870
:101A740007213030FFF78EFEFF2D00D900BE23680A
:101A8400EDB283F83C5013E00C300721FFF782FEDF
:101A9400236800221A712368072183F800802068D4
:101AA4000C30FFF783FE206807213030FFF77EFEFD
:101AB40023681F73002327736373A6606361236124
:101AC400A36123626362E361A362E36223636363EA
:101AD400A363E363BDE8F883183B00200080034060
:101AE400D83A002000E100E0000001401831002055
:101AF4001C3100200E4B10B59842044603D00D4B08
:101B0400984200D000BE2046FFF700FF2068032162
:101B14003030FFF74BFE206802213430FFF746FED9
:101B2400206800213830FFF741FE034B636210BD8B
:101B3400183B0020D83A0020E1170020174BF0B5DD
:101B4400984203D0164CA04200D000BE01B900BE9A
:101B540002B900BE984202D0114B98421DD1E1B1A6
:101B6400DAB100240368457B1B7DDBB21D4345735A
:101B74009D06F7D50F2A01EB040698BF1346354698
:101B840088BF1023076815F801EB87F800E0AF1B46
:101B94009F42F7D3D21A1C44E4D1F0BD183B002075
:101BA400D83A00200346184830B5834203D0174C76
:101BB400A34200D000BE01B900BE02B900BE8342F8
:101BC40002D01248834217D1C1B1D2B11868047D42
:101BD400587BE4B2204358730020E40710D59042A8
:101BE4000FD01C6824780C541C685D7B247D013064
:101BF400E4B225435D73F0E7002202E00A4600E008
:101C04000246104630BD00BF183B0020D83A0020E1
:101C1400164B10B59842044603D01548844200D0B0
:101C240000BE01B900BEC02A00D900BE9C4202D049
:101C34000F4B9C4218D1B9B1C02A15D82162216832
:101C44000B7A03F03F031A430A7294F90400FFF776
:101C540095FD206800210430FFF79CFD94F90400F1
:101C6400BDE81040FFF77EBD10BD00BF183B00204B
:101C7400D83A0020684620F007018D4601B5034894
:101C8400FFF7EEFDBDE8014085467047183B002094
:101C9400684620F007018D4601B50348FFF7E0FDD3
:101CA400BDE8014085467047D83A00200F4B82B00A
:101CB4001B681B0901930E4B53F820200123C2F823
:101CC400FC31D2F8FC11052907D0019B013B01939B
:101CD400019B002BF2D1062005E0064983400A78D7
:101CE400002013430B7002B0704700BF2031002066
:101CF400BC300020A13900200C4B1A78D10741BF19
:101D04000B4922F001020020C1F8FC0148BF1A70FF
:101D14001B789A0741BF074A0021C2F8FC11034A05
:101D240044BF23F002031370704700BFA1390020A1
:101D34000000086000000C60094B82B053F82030AA
:101D4400D3F820210192019AD107F9D5D3F82021A3
:101D54000192019AD207F9D5019802B0704700BFE9
:101D6400BC30002080292DE9F04303F07F0E02D11E
:101D74000144044630E003F1C0449D0704EB82446F
:101D84004FEA9E0C24F07F0418BF0CF1010C0025CF
:101D94006545DFF868800AD054F8256005F120090C
:101DA40058F822700135202D47F82960F0D10B44F2
:101DB400C3F3840958F82260C9F1200C04EB8904A8
:101DC400002505EB090754F8253001352037654512
:101DD40046F82730F5D1CBE78C420BD0064B53F8AD
:101DE4002260C0EB0E03234414F8015B334483F8F0
:101DF4008050F1E7BDE8F083BC300020C4300020FF
:101E0400F0B5044609B14D1E00E00D464FF605003D
:101E14009E4BD3F84C2192B282423AD1D3F844215A
:101E240049F6991349F699101340834223D002F0DE
:101E34009003D70702F009004FEA131301D5DE0718
:101E440002D4934A01261670092807D0B4F5805F9E
:101E540004D2012840F0EF8001B1F0BD092B0AD073
:101E6400A4F5F832B2F5805FC0F0E380894A2819FE
:101E7400904200F2DB802544B5F5003F01D30720F2
:101E8400F0BDA4F5FC33B3F5006FC0F0D480824BF1
:101E9400C6E0A2F57840861E022E38D8D3F8442135
:101EA40049F6991349F699101340834223D002F05E
:101EB400900302F00900D2074FEA131301D5DF079C
:101EC40002D4734A01261670092807D0B4F5805F3E
:101ED40004D2012840F0AF8001B1F0BD092B0AD033
:101EE400A4F57C32B2F5805FC0F0AE806B4A28194D
:101EF400904200F2A6802544B5F5802FBFD2A4F508
:101F04007E33B3F5006FC0F09680654B88E04FF6E2
:101F14000806B2422DD1D3F8440149F6991349F683
:101F240099120340934219D000F00902092A06D0FD
:101F3400B4F5805F03D2012A7DD100297BD100F45E
:101F44001040030B092B09D0A4F57432B2F5805F5D
:101F5400C0F08280534A281990427BD82544B5F5B5
:101F6400802F8CD2A4F57833B3F5005F63D34E4B46
:101F740056E00638012857D8D3F8446149F6991336
:101F840049F69912334093423FD006F0900006F48C
:101F9400104706F0090E030906F41060F6074FEA2D
:101FA40010224FEA173005D4B4F5802F0CD2384EE6
:101FB40001273770BEF1090F06D0B4F5805F03D254
:101FC400BEF1010F37D1B1BB092808D0A4F5F6261C
:101FD400B6F5805F47D3354E2F19B74241D8092A49
:101FE40008D0A4F5F820B0F5805F43D330482E190B
:101FF40086423DD8092B08D0A4F5FA22B2F5805FB9
:102004003FD32C4A2819904239D82544B5F5002FDE
:10201400BFF435AFA4F5FC23B3F5005F0BD3264B17
:102024009D4201D99C4206D90020F0BD94423FF65E
:1020340022AF012B01D00120F0BD00293FF41BAFDA
:10204400F9E794423FF657AF012BF4D100293FF44E
:1020540052AFF0E7944281D8012BECD10029EAD1A8
:102064007CE7B442BBD80128E5D10029B7D0F0BD44
:102074008442BFD8012ADED10029BBD0DBE79442D9
:10208400C3D8012BD7D10029BFD0D4E700800340A7
:10209400A0390020FFEF0100FFF70100FFEF03006C
:1020A400FFF70300FFCF0300FFDF0300FFAF0700CC
:1020B400FFBF0700FFCF0700FFDF070042030AD47A
:1020C400C3060AD410F00E0F09D110F0200F14BF6C
:1020D400052000207047012070470320704702202C
:1020E40070470000F8B50F4F0546B8420E4611D8A8
:1020F4000020FFF7DBFD044688B9013E3544BD42AC
:102104000DD90120FFF7D2FD0628044607D1FFF7B9
:10211400F3FD04E00120BDE8F840FFF7C7BD204609
:10212400F8BD00BFFFFF03002DE9F04FDFF8DCA18D
:102134001F4600256F4B8AF800509046DA6887B036
:10214400029242F4FF520191DA606B4A8346904254
:1021540000F2BC80A0F5FF226849A2F2FF728A4215
:1021640040F2B480019A002A00F0AC80B8F1000F6C
:1021740000F0AA80022F00F2A980D3F84C414FF658
:102184000203C0F3120924F48032484641469A42BD
:1021940008BF2F46FFF734FE0646002840F099801A
:1021A4009AF80030012B03D1012F04BF2F460426D7
:1021B400A4B2A4F57843063B012B08D8B9F5802FC7
:1021C40009D209EB0803B3F5802F08D903E04FF6D1
:1021D40008039C4203D1012F04BF0426002748466C
:1021E4004146FFF77FFF0446002874D1C146C9EB7E
:1021F400080000EB0B03C3F31205EA0905EB090120
:102204000132B2EBD11F9DBF03F07F03C3F1800302
:102214000093CDF800903A4BB5F5802F2CBF4FF0CA
:10222400010C4FF0000C53F82CA028BFA5F5802515
:10223400DAF8203162465B0348BFDAF85831009976
:1022440044BF43F00203CAF85831019BCDF80CC0D7
:1022540018442B46FFF786FD25F00063DDF80CC01B
:1022640023F07F0343F00063CAF840716046CAF864
:102274004831FFF761FD0590059A224BDDF80CC04B
:1022840013405BB925F0805525F07F0545F0805556
:10229400CAF848516046FFF74FFD059005981A4B60
:1022A400034013B1FFF70AFF044624B1052C02D002
:1022B400FFF722FD0FE0009B9945F9D9B9EB03091B
:1022C40095D1F5E7019E02E0464600E02E4607243C
:1022D40001E004462E460D4B00221A70054B029A6B
:1022E400DA6014B9042E08BF0424204607B0BDE800
:1022F400F08F00BF00800340FEFF07600000F85F1E
:10230400BC3000201E0004003E000400A039002060
:102314002DE9F8433C4B8846DE6846F4FF52DA6008
:102324003A4B984269D8A0F5FF23394AA3F2FF73C8
:10233400934262D9002960D0C0F312052846FFF702
:102344005FFD0446002859D128464146FFF7CAFEDE
:102354000446002852D108F1FF38EF094544ED093D
:10236400AF4202D9FFF7C8FC48E0002C42D1B7F5D0
:10237400006F284B34BF0020012053F82020264949
:10238400D2F8203151F820C05B0348BFD2F858314D
:102394004FF0000144BF43F00203C2F85831FB017F
:1023A40003F1C04EAEF1040E01F120085EF8049F63
:1023B400013120294CF82890F6D10021C2F84011AF
:1023C40023F0985123F0006321F07F0123F07F0371
:1023D40043F0006341F09851C2F84811C2F8483103
:1023E400FFF7AAFC0D4B034013B1FFF767FE044649
:1023F4000137B5E7052CBAD0B4E70724024B2046D1
:10240400DE60BDE8F88300BF00800340FEFF076084
:102414000000F85FBC300020C43000203E000400FF
:1024240010B500237AB173B9541E02F1C042013AC7
:10243400825C0A55054AD2F8202112F4807F18BF25
:1024440007232246EEE7184610BD00BF00000860CF
:102454002DE9F04F814685B08A46C0F3120011463B
:102464009046FFF73FFE0746002845D1464616B979
:10247400FFF742FC40E0002FFAD1C6EB080000EB66
:102484000905C5F31204E309A2190133B3EBD21F02
:102494008EBF354605F07F05C5F18005B4F5802F64
:1024A4002ABF4FF0010B4FF0000BA4F580242946FE
:1024B400234650445A46FFF755FC114B24F08054F0
:1024C40053F82B2024F07F0444F08054C2F8484190
:1024D40058460192FFF730FC03900399094B0B40D7
:1024E40033B1019AD2F82001FFF7E8FD0746BEE7B1
:1024F400AE42BDD9761BBAE7384605B0BDE8F08FC9
:10250400BC3000201E000400074B084A1860084B2A
:102514001860084B1860084B1A60084B1860084B89
:102524001860084B1860704720310020C00E160256
:10253400183100201C3100200C3100201031002003
:1025440014310020083100204FF602020C4BD3F85E
:102554004C11914206D00B4A536943F40073536102
:10256400FDF7A3BED3F8982042F48072C3F89820F4
:10257400D3F8982022F08062C3F89820EBE700BFDC
:102584000080034000ED00E01E4B82B0D3F8982099
:1025940051012BD4D3F89820D20412D41A4B1B4ADD
:1025A4001B4913601B4A13601B4A13601B4A1160CA
:1025B4001B491C4A11601C4A13601C4A136002B078
:1025C40070476A461A490868496803C2D3F89C20D0
:1025D40002A9C2F382120A4412F8082C012A02D07A
:1025E40004D314480AE04FF4004007E0D3F8503114
:1025F400114813F0040F114B18BF184602B0FFF72F
:1026040083BF00BF00800340003B580820310020F6
:10261400C00E1602183100201C3100200C3100209D
:10262400801D2C04103100201431002008310020BA
:10263400CC30002040420F0040787D0180F0FA0247
:1026440070B50F4E0F4D761BB61018BF002405D081
:10265400013455F8043B9847A642F9D10A4E0B4D74
:1026640000F03AFD761BB61018BF002406D00134E2
:1026740055F8043B9847A642F9D170BD70BD00BF20
:10268400F4300020F4300020FC300020F43000202E
:10269400024B0146186800F003B800BF5035002013
:1026A4002DE9F04F01F10B05162D83B0064627D90D
:1026B40035F0070500F1B680A94200F2B38000F0BE
:1026C40039FBB5F5FC7F22D2BC4FE80807EBC00309
:1026D400DC689C4200F0BC816368E16823F003037A
:1026E40023445A68A56842F00102E96030468D60CF
:1026F4005A6000F021FB0834204603B0BDE8F08F97
:10270400102900F28F8000F015FB1025DCE7680A21
:1027140000F08F80042800F24781A8093830410076
:10272400A64F07EB8101CC68A14206D10CE0002A38
:1027340080F28280E468A14206D0636823F0030338
:102744005A1B0F2AF3DD013801309C493C6901F121
:10275400080E744500F07181636823F003035A1B6B
:102764000F2A00F35781002AC1F814E0C1F810E0E1
:1027740066DAB3F5007F80F02D81DB0801EBC30836
:102784004FEAA30C4A68012303FA0CF3D8F808C0F3
:102794001343C4F808C0C4F80C804B60C8F8084060
:1027A400CCF80C408210012494409C4255D823421A
:1027B40006D120F003006400234200F10400FAD0A3
:1027C40007EBC008C4468146DCF80C309C4507D1B1
:1027D40035E1002980F24581DB689C4500F02F81BA
:1027E4005A6822F00302511B0F29F2DD1C46DA68F5
:1027F40054F808CF45F0010941F001081D44C3F81D
:1028040004903046CCF80C20C2F808C07D613D61CC
:10281400C5F80CE0C5F808E0C5F80480695000F07C
:102824008BFA69E7002420460C23336003B0BDE82B
:10283400F08F7E213F2073E723445A68E16851E713
:1028440023445A68304642F001025A60083400F0CA
:1028540073FA204603B0BDE8F08FBC68636823F0C8
:102864000308454504D8C5EB08030F2B00F38C80FF
:10287400534BDFF85CA11A68DAF800302A440133BC
:1028840004EB080B00F0518102F580520F3222F460
:102894007F6222F00F0211463046019200F04EFA98
:1028A400B0F1FF3F8146019A00F04881834500F270
:1028B400EF80444BCB4519681144196000F0438103
:1028C400DAF80000DFF808E101301BBFCBEB090B9D
:1028D4005944CEF80090196019F0070100F00881FE
:1028E400C1F10800C1F58051814408314A44C2F362
:1028F4000B02C2EB010A51463046019300F01EFA66
:10290400431C019B00F02D81C9EB0002524442F0AC
:1029140001021968BC425144C7F808901960C9F80B
:102924000420DFF8A0A016D0B8F10F0F40F2EF801A
:102934006268A8F10C0323F0070302F00102E01817
:102944004FF0050E1A430F2B6260C0F804E0C0F884
:1029540008E000F20A811C4BBC681A68914288BFE7
:1029640019601A4B1A689142626888BF196022F094
:1029740003029542A2EB050301D80F2B04DC304679
:1029840000F0DAF90024B7E645F0010243F0010350
:10299400254462603046BD6008346B6000F0CCF9B9
:1029A400204603B0BDE8F08F142869D9542800F2FA
:1029B4009880280B6E304100B2E600BF54350020E9
:1029C400AC390020B0390020A8390020A4390020F7
:1029D400603900205A0A042A55D9142A00F2A78023
:1029E4005B324FEA420C07EB8C0CDCF80810DFF882
:1029F400B88161457FD04A6822F00302934202D233
:102A040089688C45F7D1CA687B68E260A1609460EC
:102A1400CC60C7E645F0010742F001032544676036
:102A240030464D610D61C5F80CE0C5F808E06B60F7
:102A3400AA50083400F080F95EE64B68B2E609F16A
:102A4400010919F0030F0CF1080C7FF4BDAE2CE062
:102A540004F108036469A34208BF02303FF475AE71
:102A64003AE61C461A445168DB6854F8085F41F0A2
:102A7400010151603046EB609D6000F05DF93BE67A
:102A84005B3041004CE69A0938324FEA420CAAE71F
:102A9400BC42454B3FF40DAF9C68626822F00302D0
:102AA40067E7D8F8008098457CD110F0030FA8F1AF
:102AB400080300F1FF30F4D17B6823EA04037B6050
:102AC40064009C423FF6C9AE002C3FF4C6AE2342DC
:102AD40048467FF475AE6400234200F10400FAD046
:102AE4006EE6B0F5AA7F18D8E80B7730410017E6F8
:102AF4004FF48051FAE6D8F8043092104FF0010CEC
:102B04000CFA02F21343C8F804300A467DE70123A5
:102B1400C9F804304C4600222BE740F25453984243
:102B24001CD8A80C7C304100FAE51032B3E6542AD4
:102B340023D81A0B6E324FEA420C54E7BC68626821
:102B440022F0030215E7CBF30B0000287FF4B8AEA4
:102B54004244BB6842F001025A60FCE6FC217E203C
:102B6400DEE501224FF0000AD3E604F10801304605
:102B740000F06AF9DAF80010EDE6B2F5AA7F04D89D
:102B8400DA0B77324FEA420C2DE740F254518A4275
:102B940004D89A0C7C324FEA420C24E74FF0FC0C28
:102BA4007E2220E77B688BE754350020844641EA87
:102BB400000313F0030349D1403A23D30B680360A5
:102BC4004B6843608B688360CB68C3600B690361A7
:102BD4004B6943618B698361CB69C3610B6A03628F
:102BE4004B6A43628B6A8362CB6AC3620B6B036377
:102BF4004B6B43638B6B8363CB6BC363403040315C
:102C0400403ADBD230320BD30B6803604B6843602D
:102C14008B688360CB68C36010301031103AF3D2F4
:102C24000C3205D351F8043B40F8043B043AF9D282
:102C3400043208D0D2071CBF11F8013B00F8013B55
:102C440001D30B8803806046704700BF082A13D362
:102C54008B07B1D010F00303AED0C3F10403D21A32
:102C6400DB071CBF11F8013B00F8013BA4D331F88A
:102C7400023B20F8023B9FE7043AD9D3013A11F80A
:102C8400013B00F8013BF9D20B7803704B78437099
:102C94008B7883706046704770B4840746D0541EA6
:102CA400002A41D0CDB2034602E0621EE4B31446CA
:102CB40003F8015B9A07F8D1032C2ED9CDB245EA6B
:102CC40005250F2C45EA054519D9264603F11002BE
:102CD400103E0F2E42F8105C42F80C5C42F8085C7F
:102CE40042F8045C02F11002F2D8A4F1100222F0BE
:102CF4000F0204F00F041032032C13440DD91E46A6
:102D04002246043A032A46F8045BFAD8221F22F02A
:102D140003020432134404F003042CB1C9B21C446A
:102D240003F8011BA342FBD170BC70471446034651
:102D3400C2E700BF704700BF704700BF38B5074CFB
:102D44000023054608462360FEF7EEFC431C00D032
:102D540038BD2368002BFBD02B6038BD583B0020C6
:102D6400024B13B1024800F005B8704700000000A0
:102D7400852D0020014600200246034600F03CB9A0
:102D840038B5084B084DED1AAC1018BFED1805D036
:102D9400013C55F8043D9847002CF9D1BDE8384072
:102DA40000F0A0B9FC30002000310020F8B50C463A
:102DB400224F0646FFF7BEFFBB685D6825F003059A
:102DC400291B01F6EF7121F47F6121F00F01A1F5B8
:102DD4008054B4F5805F07DB30460021FFF7AEFF77
:102DE400BB682B44984204D03046FFF7A5FF00206F
:102DF400F8BD30466142FFF7A1FF01300DD0104B02
:102E0400BA6819682D1B45F001053046091B556049
:102E14001960FFF791FF0120F8BD30460021FFF74C
:102E24008DFFBA68831A0F2BDEDD064C0449246833
:102E340043F00103001B53600860D5E754350020BC
:102E4400B03900206039002000294ED02DE9F0412E
:102E54000C468046FFF76EFF54F8047C6249A4F1E7
:102E6400080527F00102AB188E6858689E4220F0CE
:102E740003005AD0FE0758600BD454F8087C01F1C3
:102E8400080EED1BAC683A44744567D0EF68E76000
:102E9400BC601C186468E4070CD4544F9C6802445A
:102EA400BC427CD0D86842F00103E06084606B606F
:102EB400AA5003E042F001036B60AA50B2F5007F10
:102EC40014D2D20801EBC20301244868921004FA18
:102ED40002F29C681043AC60EB6048609D60E56062
:102EE4004046BDE8F041FFF727BF7047530A042B63
:102EF40047D8930903F13804600001EB800083682C
:102F04003949834243D0596821F00301914202D9DF
:102F14009B689842F7D1DA68EA60AB6040469560F6
:102F2400DD60BDE8F041FFF707BFFF07024407D4A7
:102F340054F8084C2D1BEB68A8682244C3609860C1
:102F44002B4B42F001001B6868609A428D60C7D326
:102F5400284B40461968FFF729FFC1E7191849684B
:102F6400C90709D4D96802449B6842F00100D960BA
:102F74008B606860AA50B3E742F001036B60AA500B
:102F8400AEE7142B14D803F15B046000B5E74A687C
:102F9400A4100120A04002434A601A46BCE742F054
:102FA40001034D610D61EC60AC606B60AA5097E762
:102FB400542B04D8130B03F16E0460009DE7B3F5A2
:102FC400AA7F04D8D30B03F17704600095E740F29D
:102FD4005450834204D8930C03F17C0460008CE7C2
:102FE400FC207E2489E700BF543500205C35002096
:102FF4005C390020AC3900202DE9F047254C064609
:1030040025688846D5F8484192469946C4B3606815
:103014001F2817DC411C76B104EB8003C3F888A099
:10302400D4F88851012282401543022EC4F88851F5
:10303400C3F808911ED0831C6160002044F82380EB
:10304400BDE8F087144B03B34FF4C870FFF720FBBF
:103054000446D0B1D5F84831002784E888003846C2
:10306400C5F848410121C4F88871C4F88C71002E58
:10307400E1D0D1E7D4F88C311A43C4F88C21DAE7D3
:1030840005F5A674C5F84841C1E74FF0FF30BDE827
:10309400F08700BFD8300020952600204865617075
:1030A40020616E6420737461636B20636F6C6C6960
:1030B40073696F6E0A0000000000086000000C6075
:1030C4000000086000000C6000010001020203031C
:1030D4004300000028310020F8B500BFF8BC08BC4C
:1030E4009E467047F8B500BFF8BC08BC9E467047C2
:0C30F400652D002009030020E5020020EB
:103100000000000000000060003B5808C00E1602DE
:10311000801D2C04003B5808003B5808003B580811
:10312000003B58080000000000000000143400209C
:103130007C340020E4340020000000000000000087
:10314000000000000000000000000000000000007F
:10315000000000000000000000000000D43000204B
:10316000000000000000000000000000000000005F
:10317000000000000000000000000000000000004F
:10318000000000000000000000000000000000003F
:10319000000000000000000000000000000000002F
:1031A000000000000000000000000000000000001F
:1031B000000000000000000000000000000000000F
:1031C00000000000000000000000000000000000FF
:1031D00001000000000000000E33CDAB34126DE69C
:1031E000ECDE05000B000000000000000000000005
:1031F00000000000000000000000000000000000CF
:1032000000000000000000000000000000000000BE
:1032100000000000000000000000000000000000AE
:10322000000000000000000000000000000000009E
:103550002831002000000000000000005435002049
:10356000543500205C3500205C3500206435002097
:10357000643500206C3500206C3500207435002047
:10358000743500207C3500207C35002084350020F7
:10359000843500208C3500208C35002094350020A7
:1035A000943500209C3500209C350020A435002057
:1035B000A4350020AC350020AC350020B435002007
:1035C000B4350020BC350020BC350020C4350020B7
:1035D000C4350020CC350020CC350020D435002067
:1035E000D4350020DC350020DC350020E435002017
:1035F000E4350020EC350020EC350020F4350020C7
:10360000F4350020FC350020FC3500200436002075
:10361000043600200C3600200C3600201436002022
:10362000143600201C3600201C36002024360020D2
:10363000243600202C3600202C3600203436002082
:10364000343600203C3600203C3600204436002032
:10365000443600204C3600204C36002054360020E2
:10366000543600205C3600205C3600206436002092
:10367000643600206C3600206C3600207436002042
:10368000743600207C3600207C36002084360020F2
:10369000843600208C3600208C36002094360020A2
:1036A000943600209C3600209C360020A436002052
:1036B000A4360020AC360020AC360020B436002002
:1036C000B4360020BC360020BC360020C4360020B2
:1036D000C4360020CC360020CC360020D436002062
:1036E000D4360020DC360020DC360020E436002012
:1036F000E4360020EC360020EC360020F4360020C2
:10370000F4360020FC360020FC3600200437002070
:10371000043700200C3700200C370020143700201D
:10372000143700201C3700201C37002024370020CD
:10373000243700202C3700202C370020343700207D
:10374000343700203C3700203C370020443700202D
:10375000443700204C3700204C37002054370020DD
:10376000543700205C3700205C370020643700208D
:10377000643700206C3700206C370020743700203D
:10378000743700207C3700207C37002084370020ED
:10379000843700208C3700208C370020943700209D
:1037A000943700209C3700209C370020A43700204D
:1037B000A4370020AC370020AC370020B4370020FD
:1037C000B4370020BC370020BC370020C4370020AD
:1037D000C4370020CC370020CC370020D43700205D
:1037E000D4370020DC370020DC370020E43700200D
:1037F000E4370020EC370020EC370020F4370020BD
:10380000F4370020FC370020FC370020043800206B
:10381000043800200C3800200C3800201438002018
:10382000143800201C3800201C38002024380020C8
:10383000243800202C3800202C3800203438002078
:10384000343800203C3800203C3800204438002028
:10385000443800204C3800204C38002054380020D8
:10386000543800205C3800205C3800206438002088
:10387000643800206C3800206C3800207438002038
:10388000743800207C3800207C38002084380020E8
:10389000843800208C3800208C3800209438002098
:1038A000943800209C3800209C380020A438002048
:1038B000A4380020AC380020AC380020B4380020F8
:1038C000B4380020BC380020BC380020C4380020A8
:1038D000C4380020CC380020CC380020D438002058
:1038E000D4380020DC380020DC380020E438002008
:1038F000E4380020EC380020EC380020F4380020B8
:10390000F4380020FC380020FC3800200439002066
:10391000043900200C3900200C3900201439002013
:10392000143900201C3900201C39002024390020C3
:10393000243900202C3900202C3900203439002073
:10394000343900203C3900203C3900204439002023
:10395000443900204C3900204C390020000002007E
:04396000FFFFFFFF67
:04000005200001894D
:00000001FF
