:100000000000012089010000F9010000FB0100004F
:10001000FD010000FF0100000102000000000000DF
:1000200000000000000000000000000003020000CB
:1000300005020000000000000702000009020000A5
:100040000B0200000D0200000F0200001102000070
:100050001302000015020000170200001902000040
:100060001B0200001D020000F90B0000150C00002F
:100070002302000025020000B9060000290200004A
:100080002B0200002D0200002F02000031020000B0
:100090003302000035020000370200003902000080
:1000A0003B0200003D0200003F0200004102000050
:1000B0004302000045020000470200004902000020
:1000C0004B0200004D0200004F02000051020000F0
:1000D00053020000550200005702000059020000C0
:1000E0005B0200005D0200005F0200006102000090
:1000F0006302000065020000670200006902000060
:100100006B0200006D0200006F020000710200002F
:1001100073020000750200007702000079020000FF
:100120007B0200007D0200007F02000081020000CF
:10013000830200008502000087020000890200009F
:100140008B0200008D0200008F020000910200006F
:10015000930200009502000097020000990200003F
:100160009B0200009D0200009F020000A10200000F
:10017000A3020000A5020000A7020000A9020000DF
:10018000AB020000AD020000494880474948002802
:100190000BD1494849494A4A884206D091421CBF7E
:1001A00050F8043B41F8043BF8D146484649474AD9
:1001B000884206D091421CBF50F8043B41F8043BF2
:1001C000F8D143484349444A914218BF41F8040BCF
:1001D000FAD1000000000000000000000000000054
:1001E000DFF8F8000FF2030E00474FF000004FF069
:1001F0000001DFF8ECF0FEE7FEE7FEE7FEE7FEE7D2
:10020000FEE7FEE7FEE7FEE7FEE7FEE7FEE7FEE7C6
:10021000FEE7FEE7FEE7FEE7FEE7FEE7FEE7FEE7B6
:10022000FEE7FEE7FEE7FEE7FEE7FEE7FEE7FEE7A6
:10023000FEE7FEE7FEE7FEE7FEE7FEE7FEE7FEE796
:10024000FEE7FEE7FEE7FEE7FEE7FEE7FEE7FEE786
:10025000FEE7FEE7FEE7FEE7FEE7FEE7FEE7FEE776
:10026000FEE7FEE7FEE7FEE7FEE7FEE7FEE7FEE766
:10027000FEE7FEE7FEE7FEE7FEE7FEE7FEE7FEE756
:10028000FEE7FEE7FEE7FEE7FEE7FEE7FEE7FEE746
:10029000FEE7FEE7FEE7FEE7FEE7FEE7FEE7FEE736
:1002A000FEE7FEE7FEE7FEE7FEE7FEE7FEE7704754
:1002B0002915000000000000E4020000E402000034
:1002C0006C1900006C19000000F0002048F40020B8
:1002D0000000000048F40020F0F500206116000046
:0402E00041030000D6
:1002E40010B5054C237833B9044B13B10448AFF36C
:1002F40000800123237010BD48F40020000000009A
:1003040048190000084B10B51BB108480849AFF361
:1003140000800848036803B910BD074B002BFBD0CD
:10032400BDE81040184700BF000000004819000055
:100334004CF4002000F000200000000008B500F09C
:1003440083F900F091F810B100F0E6F8FEE700F050
:10035400F5F8FBE7032930B414DD0346CD1E05444C
:10036400002213F8014FAB422244FAD1524202F068
:10037400FF02014411F8020C30BC904214BF21204A
:10038400002070470022F4E7F8B50546069E0F0AE0
:10039400022430126970AF70EA702C702E7168718B
:1003A40063B1002E0ADD32461946A81D01F07EF91C
:1003B400741DB71D06F10800073603E00726082060
:1003C400062705242B462C44002213F8011FA342C0
:1003D4000A44FAD152420323EA55AB55F8BD00BF93
:1003E4002DE9F843002705460E463C4640F6B7384B
:1003F400DFF848902B681A7DD20713D4062C15D049
:1004040017DDBC4206EB040303DB13F8013C032BAA
:1004140005D0D9F8000000F095F94045EAD9204606
:10042400BDE8F8831B7833550134E3E7B788083710
:10043400EFE7002CEDD12046BDE8F88364F40020FA
:1004440010B5002284B01346009248F2011102A8AC
:10045400FFF79AFF044600F0F3F802A9224600F0E1
:1004640099FB204604B010BDF0B591B000214022A4
:10047400684601F091F9FFF7E3FF00F05DF948F2F7
:10048400011740F6B736174D0024286000F0D8F85D
:100494000DEB04014022FFF7A3FF041E16DD9DF8B7
:1004A4000030022B0BD0BDF80130BB4212D02868BB
:1004B40000F048F9B042E9D9002011B0F0BD684617
:1004C4002146FFF747FF0028F1DBECE7286800F03E
:1004D40039F9ECE768460021402201F05DF901207A
:1004E40011B0F0BD64F400204FF0005210B5136851
:1004F40083F30888054906480B68064C43F001035A
:100504000B60236882609847FEE700BF00800340C9
:1005140000ED00E00400002008B5054A054B06483C
:1005240053F8041B834242F8041FF9D1FFF7DCFFA0
:10053400FCFFFF1F003000600090006008B54FF41E
:1005440010431A6882F3088849F2040202491268C7
:100554008B609047FEE700BF00ED00E000B54FF46C
:100564007C3383B00193019803494FF4807200F007
:100574004FFF03B05DF804FB70F4002010B506488B
:1005840000214FF4807201F007F90324FFF7E6FF1E
:1005940008B1013CFAD110BD70F4002070B51E4AB8
:1005A40084B00023012801930292039320D00228EF
:1005B40022D0032825D1C023184E03934025029B43
:1005C400039A032413440193019831462A460023D5
:1005D40000F074FDC0B1052816D0032806D1019897
:1005E400294600F07FFE013CEED1002004B070BD2E
:1005F400039380250A4EE2E7802303934025094EA6
:10060400DDE74FF0FF30F1E701982A46044900F096
:100614001DFF0028EAD1E8E700F0036030F5002070
:1006240070F40020F0F40020014B1868704700BFFC
:1006340070F40020014B1860704700BF70F4002074
:1006440000487047B0F500201249134A002370B5E2
:10065400CB669360FFF792FFFFF7E6FF642805D0AF
:100664006420FFF7E7FF0120FFF798FF0B484FF4E2
:100674006121032200F060FA094D00F031F8094CC1
:1006840009480A490A4A002309262E6004600B60BF
:10069400136070BD0080034000ED00E0B0F5002061
:1006A400004000502C012C01084000500C00005068
:1006B40008000050684620F007018D46074A01B43F
:1006C400136801204FF04021034413600861BFF315
:1006D4004F8F5DF8040B8546704700BF68F4002017
:1006E4001149F0B54FF48040104FC1F88000BE6C42
:1006F4000F4BDFF840E000224FF04025012426F0A4
:100704004006BE646A65C3F88021C3F88821C3F833
:1007140084212C61C1F88001C5F804E0C3F880414C
:10072400C3F888410860F0BD00E100E000800340A8
:1007340000000842E0220200014B1868704700BF25
:1007440068F40020054B1A68904203D9C0431B6823
:10075400C01A70471B68181A704700BF68F400205D
:100764002DE9F04FDFF854E283B07045044690461B
:1007740000F0D1808B488C4B05469A6C8B4E42F42A
:1007840080724FF00B0C4FF40067206084F804C0B3
:100794009A64C6F880719A6C22F480729A64002379
:1007A4002B7122684FF0010C13722268744502F118
:1007B400080002F1100502F13409C0F3130A00F035
:1007C400704002F1380702F13006C5F3130B00EB59
:1007D4004A1005F07045C9F3130A09F0704905EB96
:1007E4004B1509EB4A19C7F3130BC6F3130A07F0A9
:1007F400704706F0704607EB4B1706EB4A1600F1FC
:10080400007006F1007605F1007509F1007907F131
:100814000077C0F804C0C0F808C0C0F800C02B615D
:100824006B61C9F80430C9F800307B607361B3614F
:10083400F361FB6082F84430226882F84830226811
:1008440082F84C307CD05A4B9C4216D0226800234C
:1008540082F80C80A16084F80C8063612361A36139
:1008640023626362E361A362E36223636363A3635A
:10087400E363637303B0BDE8F08FA160019100F0FE
:1008840071FE4C4B01991B68DB00B3FBF1F3DA09F1
:10089400B2F5803F4FEA5305D8D2012A58D9D4F88B
:1008A40000E0C3F3C73C0EF10C0000F0704606F103
:1008B4000076C0F3130001271C36400137508EF830
:1008C40004C02068D6B206702668A5EB821EAEEB83
:1008D400C21206F10C0506F1300000F0704C13440E
:1008E40005F07042A3EB4E0302F100720CF1007E9E
:1008F400C5F31305C0F31300DBB21C326D014FF0D6
:10090400000C0EF11C0E400142F805C04EF80070B8
:1009140086F83C309AE7244B24489A6C4FF480655F
:1009240042F080024FF080470A26276026719A64BD
:10093400C0F880519A6C256822F080029A642EE7F0
:10094400A160019100F00EFE1B4B01991B689BE70F
:100954002668002506F10C0303F0704000F10070D6
:10096400C3F3130301271C305B01C750357123689F
:10097400D2B21A70226802F10C0002F1300300F0C6
:10098400704703F0704607F10077C0F3130006F1D7
:100994000076C3F313031C3740011C365B013D5042
:1009A400F55054E7000001400080034000E100E0FE
:1009B40070F5002018F0002014F00020B0F500209D
:1009C4000268137A03F00F030C2B0AD8DFE803F054
:1009D40007090E126D090A09090909096D00836ADC
:1009E4001BB97047C369002BFBD01847436A002B1F
:1009F400F7D01847283202F07043C2F313025201B1
:100A040003F10071895810B511F0FF0F044609D0A5
:100A1400C16A39B1884723682833C3F313025201EA
:100A240003F070431A4402F100735B6813F0FF0F84
:100A34000BD0236B4BB1204698472268283202F032
:100A44007043C2F3130203EB421202F100739B687A
:100A540013F0FF0F0BD0636B4BB12046984722680D
:100A6400283202F07043C2F3130203EB421202F184
:100A74000073DB6813F0FF0F0BD0A36B4BB1204660
:100A840098472268283202F07043C2F3130203EB42
:100A9400421202F10072136913F0FF0F09D0E36BE5
:100AA4003BB12046BDE810409FE7036A002B98D075
:100AB400184710BD1E4B984203D01E4B984200D0DD
:100AC400704701690029FBD04269002AF8D030B48C
:100AD4000468457B237DDBB21D4313F0200F45736F
:100AE400836911D0D51A0F2D1FD91025002201E0DA
:100AF40004680169CB5C013223708369AA4203F163
:100B040001038361F4D342699A420CD10368002142
:100B1400043303F0704202F10072C3F3130304328E
:100B24005B014161D15030BC7047002DDED1EBE751
:100B3400B0F5002070F50020F8B50446FFF710FE6C
:100B44002368134E03F1300103F1340201F07045C0
:100B5400383302F0704003F0704705F10075C1F3BB
:100B6400130100F10070C2F31302C3F313034FF037
:100B7400000E0C3549010830520107F100775B0182
:100B840045F801E040F802E047F803E06662F8BD8A
:100B9400B90A0000154B984203D0154B984200D077
:100BA40070470029FCD0002AFAD0F0B50E4604683C
:100BB400457B4FF0000E237DDBB21D439B0645733E
:100BC400F9D50F2A94BF17461027BE44334601EBCC
:100BD4000E0600E0046813F8015BB3422570F9D1F6
:100BE400D21B02D00468457BE5E7F0BDB0F50020D8
:100BF40070F50020684620F007018D4601B50348D2
:100C0400FFF7DEFEBDE8014085467047B0F50020E1
:100C1400684620F007018D4601B50348FFF7D0FE72
:100C2400BDE801408546704770F5002010B4124BB2
:100C3400124A1B6883B01B0952F820200193012437
:100C4400C2F8FC41D2F8FC310121052B0AD0019BEA
:100C5400013B0193019B002BF2D1062003B05DF808
:100C6400044B7047064A81401378002019431170E1
:100C740003B05DF8044B70471CF0002028190000F5
:100C84006DF400200A4A1378D80706D5094903F001
:100C9400FE030020C1F8FC011370990706D506492C
:100CA40023F002030020C1F8FC011370704700BF59
:100CB4006DF400200000086000000C6080292DE91C
:100CC400F04399464CD003F1C04606EB824603F04C
:100CD4007F0513F0030F26F07F064FEA95083AD1FB
:100CE400B8F1000F3FD0224B346853F82270B64657
:100CF400C7F88040012405E05EF8043F202C47F843
:100D04002C3005D0444504F1200C04F10104F3D146
:100D1400BE4601EB0904C4F38404043E234606EBF7
:100D2400840403F1200654F8047F0133202B4EF889
:100D34002670F6D191B10F4B013853F8226000238D
:100D44005A1910F8014F01333244994282F8804015
:100D5400F6D8BDE8F08308F10108C4E7BDE8F083E4
:100D640003F07F05E7E7024B53F822E0D1E700BF29
:100D74003019000028190000F0B569B34D1E4FF674
:100D84000504A64AD2F84C319BB2A34230D0A3F555
:100D94007844A61E022E21D849F699131C46D2F88F
:100DA40044211340A34200F0E58002F09004D707E9
:100DB4004FEA141402F0090352D4994A012616701A
:100DC400092B00F0C480B0F5805F80F0C080012B57
:100DD40000F0BA800120F0BD0D46D0E74FF60806BA
:100DE400B34200F0CD80063C012C3FD90020F0BD79
:100DF40049F699131C46D2F844211340A3421FD04C
:100E040002F09004D6074FEA141402F009032AD41E
:100E1400834A01261670092B06D0B0F5805F03D2F1
:100E2400012BD7D10029D5D1092C09D0A0F5F8334D
:100E3400B3F5805F80F0E980012CCBD10029C9D1C2
:100E44002B18B3F5003F80F09980A0F5FC32B2F581
:100E5400006FBFD3734A9342C8D99042C6D8B9E74A
:100E6400E607ADD4A9E7E207D5D4D1E749F699134B
:100E74001C46D2F844211340A34256D002F09006F7
:100E840002F4106402F410433709260A1C0B02F022
:100E94000903D20707D4B0F5802F0DD2604A4FF072
:100EA400010E82F800E0092B06D0B0F5805F03D272
:100EB400012B8FD100298DD1092C10D0A0F5F62358
:100EC400B3F5805F05D3584B2A189A4207D9984244
:100ED40005D8012C7FF47EAF00297FF47BAF092E67
:100EE40010D0A0F5F823B3F5805F05D34F4B2A1833
:100EF4009A4207D9984205D8012E7FF46BAF002996
:100F04007FF468AF092F10D0A0F5FA23B3F5805F02
:100F140005D3474A2B18934208D9904206D8012F8B
:100F24007FF458AF00297FF455AF2B18B3F5002F89
:100F340024D2A0F5FC22B2F5005FFFF44BAF3D4A8A
:100F440093427FF653AF88E700297FF443AF092C1F
:100F540010D0A0F57C33B3F5805F05D3364A2B1847
:100F6400934208D9904206D8012C7FF433AF00296C
:100F74007FF430AF2B18B3F5802F3BD30720F0BD9F
:100F840049F699131C46D2F844211340A34222D0B7
:100F940002F00903092B08D0B0F5805F05D2012BBC
:100FA4007FF418AF00297FF415AF02F41042120B3E
:100FB400092A10D0A0F57433B3F5805F05D31F4C14
:100FC4002B18A3420BD9A04206D8012A7FF402AF02
:100FD40000297FF4FFAE2B18B3F5802FCED2A0F5F5
:100FE4007832B2F5005FFFF4F5AE154A93423FF64E
:100FF40034AFFBE6A0F57E32B2F5006FFFF4EAAE43
:10100400104A93423FF629AFF0E60F4A2B18934259
:101014007FF617AF90423FF614AF0DE70080034010
:101024006CF40020FFF70100FFAF0700FFBF0700CB
:10103400FFCF0700FFDF0700FFEF0300FFCF030030
:10104400FFDF0300FFF70300FFEF0100420308D4B2
:10105400C30601D50320704710F00E0F03D0022001
:1010640070470120704710F0200F14BF05200020A6
:10107400704700BF70B5104E82B0B0420BD8044622
:1010840000200D46FFF7D2FD18B9691E0C44B44286
:1010940007D802B070BD012002B0BDE87040FFF770
:1010A400C5BD0120FFF7C2FD0628F2D10190FFF76C
:1010B400E9FD0198EDE700BFFFFF03002DE9F04FC4
:1010C4008046804D804800272F70C6687F4C46F4C8
:1010D400FF5EA04589B0C0F80CE008D891469C4654
:1010E4007B4AA8F5FF23A3F2FF73934208D8072491
:1010F400754B00222A70DE60204609B0BDE8F08FEF
:101104008A460029F3D0B9F1000FF0D0BCF1020FE8
:10111400EDD84FF60202D0F84CB1C8F312032BF409
:101124008034944208BFBC46184649460193CDF822
:1011340000C0CDF808C0FFF71FFEDDF800C004466C
:10114400019B0028D4D12A78012A00F0B3801FFA29
:101154008BFBABF57842063A012A40F29B804FF6AE
:101164000802934500F09F8018464946CDF804C014
:10117400FFF780FFDDF804C0009008B1009CB7E7DA
:10118400CDF804A0CA460394CDF808C0CAEB090000
:1011940000EB080BCBF31207FB0907EB0A02013340
:1011A400B3EBD21F4B4B9ABF0BF07F0BCBF1800BF1
:1011B400D3469F42484B8CBF0122002253F8224061
:1011C40088BFA7F58027D4F820315B0305D5D4F870
:1011D400583143F00203C4F85831019B594618446E
:1011E4003B46FFF76BFD27F0006323F07F03029A71
:1011F40043F00063C4F84021C4F84831D4F82031E6
:101204000793079BD807F9D5D4F820310793079B98
:10121400D907F9D5079A314B0592059A1340ABB912
:1012240027F0805727F07F0747F08057C4F84871AC
:10123400D4F820310693069BDA07F9D5D4F8203187
:101244000693069BDB07F9D5069B05930598244B6B
:10125400034013B1FFF7FAFE0090009B2BB1052B5E
:1012640003D0009CFFF70EFD42E7D34502D2BAEB50
:101274000B0A8BD1039CFFF705FD134B00222A7048
:10128400DE60009BE3B9042C18BF0024204609B09B
:10129400BDE8F08FB3F5802F05D203EB0902B2F558
:1012A400802F7FF661AFBCF1010F04BF04244FF01F
:1012B400000C59E7BCF1010F04BFBC46042446E707
:1012C4001C4619E76CF4002000800340FEFF076011
:1012D4000000F85FFFFF0300281900001E0004004F
:1012E4003E0004002DE9F04F434B444ADD68904230
:1012F40045F4FF5485B0DC6005D907203E4BDD6022
:1013040005B0BDE8F08FA0F5FF233D4AA3F2FF73BB
:101314009342F2D90029F0D0C0F3120630460C46AD
:10132400FFF72AFD0028E9D130462146FFF7A2FE47
:101334000028E3D104F1FF38B0444FEAD818F60985
:10134400464553D840F2FF7BDFF8BC90DFF8BCA0E1
:101354005E4594BF0023012359F823E0DEF82021E1
:10136400510305D5DEF8582142F00202CEF8582187
:101374004FEAC61C0CF1C0425AF82370043A002309
:1013840003F1200152F8044F0133202B47F8214088
:10139400F6D12CF098522CF0006322F07F0223F057
:1013A4007F0342F0985243F000630021CEF84011CD
:1013B400CEF84821CEF84831DEF820310393039B60
:1013C400DA07F9D5DEF820310393039BDB07F9D55F
:1013D400039A0C4B134013B11046FFF737FE013646
:1013E400B04503D30028B3D00528B1D00190FFF74E
:1013F40049FC019882E700BF00800340FEFF0760BC
:101404000000F85F3E0004002819000030190000B5
:10141400C2B110B402F1C0430B4C1144184410F88B
:10142400013D013A01F8013DD4F82031DB0503D533
:1014340007205DF8044B7047002AF0D100205DF8C6
:10144400044B704700207047000008602DE9F04FFE
:10145400804685B08A46C0F31200114614460092B5
:10146400FFF708FE019000284CD1002C48D02646F6
:101474000746DFF8AC9007EB0805C5F31204E3094F
:10148400A2190133B3EBD21F8EBF354605F07F0599
:10149400C5F180054C4586BFA4F580244FF0010BAF
:1014A4004FF0000B23460AEB070029465A46FFF784
:1014B40005FC194B24F0805424F07F0453F82B309E
:1014C40044F08054C3F84841D3F820210392039A8E
:1014D400D107F9D5D3F820210392039AD207F9D57D
:1014E40003990E4A029102990A403AB1D3F82001B5
:1014F400FFF7ACFD0028BED0019001E0B54205D352
:10150400FFF7C0FB019805B0BDE8F08F761BF7D05C
:10151400009B9F1BAFE700BF281900001E000400BA
:10152400FFFF03004FF602020C4BD3F84C1191421B
:1015340006D00B4A536943F400735361FEF7B5BEFA
:10154400D3F8982042F48072C3F89820D3F89820F6
:1015540022F08062C3F89820EBE700BF00800340CC
:1015640000ED00E0F0B52E4B83B0D3F89820510184
:1015740017D4D3F89820D2042ED56A46294908688E
:10158400496803C2D3F89C2002A9C2F382120A4418
:1015940012F8082C012A36D003D3DFF8BCE0224B22
:1015A40009E0D3F85011214A11F0040F204B18BF61
:1015B4001346DFF8A4E01F4F1F4E204D204C214856
:1015C400214A2249CEF800303B6033602B6023600F
:1015D4000360116003B0F0BD1D4BDFF87CC0DFF881
:1015E40054E0154F164E174D1748184C134A194915
:1015F400CCF80030CEF800303B6033602B600460E0
:10160400116003B0F0BDDFF850E00A4F0A4E0B4DF5
:101614000B4C0C480C4A0D494FF40043D2E700BF71
:10162400008003403819000040420F0080F0FA02A5
:1016340040787D0114F0002018F000200CF0002008
:1016440010F0002004F0002008F00020C00E160264
:10165400003B5808801D2C041CF0002070B50F4E70
:101664000F4D761BB61018BF002405D0013455F871
:10167400043B9847A642F9D10A4E0B4D00F062F99B
:10168400761BB61018BF002406D0013455F8043B6D
:101694009847A642F9D170BD70BD00BF6019000023
:1016A400601900006819000060190000844641EACE
:1016B400000313F0030349D1403A23D30B680360BA
:1016C4004B6843608B688360CB68C3600B690361BC
:1016D4004B6943618B698361CB69C3610B6A0362A4
:1016E4004B6A43628B6A8362CB6AC3620B6B03638C
:1016F4004B6B43638B6B8363CB6BC3634030403171
:10170400403ADBD230320BD30B6803604B68436042
:101714008B688360CB68C36010301031103AF3D209
:101724000C3205D351F8043B40F8043B043AF9D297
:10173400043208D0D2071CBF11F8013B00F8013B6A
:1017440001D30B8803806046704700BF082A13D377
:101754008B07B1D010F00303AED0C3F10403D21A47
:10176400DB071CBF11F8013B00F8013BA4D331F89F
:10177400023B20F8023B9FE7043AD9D3013A11F81F
:10178400013B00F8013BF9D20B7803704B784370AE
:101794008B7883706046704770B4840746D0541EBB
:1017A400002A41D0CDB2034602E0621EE4B31446DF
:1017B40003F8015B9A07F8D1032C2ED9CDB245EA80
:1017C40005250F2C45EA054519D9264603F11002D3
:1017D400103E0F2E42F8105C42F80C5C42F8085C94
:1017E40042F8045C02F11002F2D8A4F1100222F0D3
:1017F4000F0204F00F041032032C13440DD91E46BB
:101804002246043A032A46F8045BFAD8221F22F03F
:1018140003020432134404F003042CB1C9B21C447F
:1018240003F8011BA342FBD170BC70471446034666
:10183400C2E700BF024B13B1024800F005B870477D
:10184400000000005918000001460020024603462B
:1018540000F016B838B5084B084DED1AAC1018BF97
:10186400ED1805D0013C55F8043D9847002CF9D1FA
:10187400BDE8384000F06CB8681900006C1900002D
:101884002DE9F047254C064625688846D5F8484199
:1018940092469946C4B360681F2817DC411C76B190
:1018A40004EB8003C3F888A0D4F888510122824055
:1018B4001543022EC4F88851C3F808911ED0831C26
:1018C4006160002044F82380BDE8F087144B03B323
:1018D4004FF4C870AFF300800446D0B1D5F8483156
:1018E400002784E888003846C5F848410121C4F837
:1018F4008871C4F88C71002EE1D0D1E7D4F88C3112
:101904001A43C4F88C21DAE705F5A674C5F84841F2
:10191400C1E74FF0FF30BDE8F08700BF4419000075
:10192400000000000000086000000C600000086077
:1019340000000C60000100010202030343000000E8
:1019440020F00020F8B500BFF8BC08BC9E467047E4
:10195400F8B500BFF8BC08BC9E46704739180000B3
:0819640009030000E502000088
:10196C0000000000003B5808C00E1602801D2C041D
:10197C00003B5808003B5808003B5808003B5808EF
:10198C00000000000CF3002074F30020DCF30020B6
:10199C00000000000000000000000000000000003B
:1019AC00000000000000000000000000000000002B
:1019BC0000000000401900000000000000000000C2
:1019CC00000000000000000000000000000000000B
:1019DC0000000000000000000000000000000000FB
:1019EC0000000000000000000000000000000000EB
:1019FC0000000000000000000000000000000000DB
:101A0C0000000000000000000000000000000000CA
:101A1C0000000000000000000000000000000000BA
:101A2C0000000000000000000100000000000000A9
:101A3C000E33CDAB34126DE6ECDE05000B0000006E
:101A4C00000000000000000000000000000000008A
:101A5C00000000000000000000000000000000007A
:101A6C00000000000000000000000000000000006A
:101A7C00000000000000000000000000000000005A
:04000003000001896F
:00000001FF
