:0200000460009A
:100000000000012089010000F9010000FB0100004F
:10001000FD010000FF0100000102000000000000DF
:1000200000000000000000000000000003020000CB
:1000300005020000000000000702000009020000A5
:100040000B0200000D0200000F0200001102000070
:100050001302000015020000170200001902000040
:100060001B0200001D02000065110000811100004C
:100070002302000025020000B10C0000290200004C
:100080002B0200002D0200002F02000031020000B0
:100090003302000035020000370200003902000080
:1000A0003B0200003D0200003F0200004102000050
:1000B0004302000045020000470200004902000020
:1000C0004B0200004D0200004F02000051020000F0
:1000D00053020000550200005702000059020000C0
:1000E0005B0200005D0200005F0200006102000090
:1000F0006302000065020000670200006902000060
:100100006B0200006D0200006F020000710200002F
:1001100073020000750200007702000079020000FF
:100120007B0200007D0200007F02000081020000CF
:10013000830200008502000087020000890200009F
:100140008B0200008D0200008F020000910200006F
:10015000930200009502000097020000990200003F
:100160009B0200009D0200009F020000A10200000F
:10017000A3020000A5020000A7020000A9020000DF
:10018000AB020000AD020000494880474948002802
:100190000BD1494849494A4A884206D091421CBF7E
:1001A00050F8043B41F8043BF8D146484649474AD9
:1001B000884206D091421CBF50F8043B41F8043BF2
:1001C000F8D143484349444A914218BF41F8040BCF
:1001D000FAD1000000000000000000000000000054
:1001E000DFF8F8000FF2030E00474FF000004FF069
:1001F0000001DFF8ECF0FEE7FEE7FEE7FEE7FEE7D2
:10020000FEE7FEE7FEE7FEE7FEE7FEE7FEE7FEE7C6
:10021000FEE7FEE7FEE7FEE7FEE7FEE7FEE7FEE7B6
:10022000FEE7FEE7FEE7FEE7FEE7FEE7FEE7FEE7A6
:10023000FEE7FEE7FEE7FEE7FEE7FEE7FEE7FEE796
:10024000FEE7FEE7FEE7FEE7FEE7FEE7FEE7FEE786
:10025000FEE7FEE7FEE7FEE7FEE7FEE7FEE7FEE776
:10026000FEE7FEE7FEE7FEE7FEE7FEE7FEE7FEE766
:10027000FEE7FEE7FEE7FEE7FEE7FEE7FEE7FEE756
:10028000FEE7FEE7FEE7FEE7FEE7FEE7FEE7FEE746
:10029000FEE7FEE7FEE7FEE7FEE7FEE7FEE7FEE736
:1002A000FEE7FEE7FEE7FEE7FEE7FEE7FEE7704754
:1002B0003103000001000000300400603004000041
:1002C000101D0000101D006000F0002050F4002000
:1002D0000000000050F4002000F60020F919000092
:1002E0008D0400000000000000000000000000007D
:1002F000074B084A1860084B1860084B1860084BF9
:100300001A60084B1860084B1860084B186070475B
:100310001CF00020C00E160214F0002018F000207F
:1003200008F000200CF0002010F0002004F0002065
:100330004FF602020C4BD3F84C11914206D00B4AF7
:10034000536943F400735361FFF7B1BFD3F89820AA
:1003500042F48072C3F89820D3F8982022F080628B
:10036000C3F89820EBE700BF0080034000ED00E0F9
:100370001E4B82B0D3F8982051012BD4D3F898208B
:10038000D20412D41A4B1B4A1B4913601B4A136038
:100390001B4A13601B4A11601B491C4A11601C4A0E
:1003A00013601C4A136002B070476A461A49086815
:1003B000496803C2D3F89C2002A9C2F382120A44FE
:1003C00012F8082C012A02D004D314480AE04FF492
:1003D000004007E0D3F85031114813F0040F114BDF
:1003E00018BF184602B0FFF783BF00BF008003406C
:1003F000003B58081CF00020C00E160214F000202C
:1004000018F0002008F00020801D2C040CF00020C3
:1004100010F0002004F00020D01C000040420F002B
:1004200040787D0180F0FA0200000000000000002A
:1004300010B5054C237833B9044B13B10448AFF31E
:1004400000800123237010BD50F400200000000044
:10045000E01C0000084B10B51BB108480849AFF379
:1004600000800848036803B910BD074B002BFBD080
:10047000BDE81040184700BF00000000E01C00006D
:1004800054F4002000F000200000000080B582B08D
:1004900000AF0123FB7100F025FB00F035F90346A6
:1004A000FB71FB79002B02D000F006FA01E000F0AE
:1004B0000BFAFEE780B586B000AFF8607B600B46B4
:1004C0007B8113467B7200237B6100237B827B69E7
:1004D0005A1C7A611A46FB68134402221A707B691F
:1004E0005A1C7A611A46FB6813447A89D2B21A7090
:1004F0007B695A1C7A611A46FB6813447A89120A8E
:1005000092B2D2B21A707B695A1C7A611A46FB68A1
:1005100013447A7A1A707B695A1C7A611A46FB680E
:1005200013443A6AD2B21A707B695A1C7A611A462D
:10053000FB6813443A6A1212D2B21A707B68002B1D
:100540000FD03B6A002B0CDD7B69FA681A443B6ACA
:10055000104679681A4601F077FA7A693B6A1344C3
:100560007B617B69013BF86801211A4600F018F8AD
:1005700003467B827B695A1C7A611A46FB681344E6
:100580007A8AD2B21A707B695A1C7A611A46FB6861
:10059000134403221A707B6918461837BD4680BD84
:1005A00080B489B000AFF860B9607A600023FB6165
:1005B00000237B6100233B610023BB610023BB61FF
:1005C0000EE0BA68BB6913441A46FB6813441B78F3
:1005D0007B61FA697B691344FB61BB690133BB61D1
:1005E000BA697B689A42ECDBFB69DBB25B423B6138
:1005F0003B69DBB218462437BD465DF8047B704783
:1006000080B586B000AF7860396000237B6100233D
:10061000FB740023BB747B68FB60FB681B78022BB8
:1006200015D13B68033B786801211A46FFF7B8FFF4
:100630000346BB743B68023B7A6813441B78FB7427
:10064000FA7CBB7C9A4204D021237B6101E0202309
:100650007B617B6918461837BD4680BD80B58AB07E
:1006600000AFF860B9607A6000237B6200233B62D0
:100670000623FB610023BB610AE07B6ABA6813446E
:10068000FA6812681278D2B21A707B6A01337B6200
:10069000FB681B681B7DDBB203F00103002BECD170
:1006A0007A6AFB699A420AD1BB687B617B699B8845
:1006B0009BB2BB61FA69BB69134402333B627A6A3D
:1006C000FB699A420BDD7A6A3B6A9A4207DB7B6AD6
:1006D000013BBA6813441B78032B00D10CE07B6A02
:1006E000002B09D0074B1B68184600F015FB02468B
:1006F00040F6B7339A42BFD97B6A18462837BD46C1
:1007000080BD00BF6CF4002080B596B000AF002320
:10071000FB643B1D40221846002101F00BFA002328
:1007200087F8573000233B650023BB6400F060F876
:1007300000F0E6FA02462C4B1A6000F0C9F90146B7
:100740003A1D3B6D1344084619464022FFF786FFC9
:1007500038653B6D002B20DD3B1D7B64786C396D6B
:10076000FFF74EFFB864BB6C002B15DB7B6CB3F856
:1007700001309BB21A4648F201139A4200D00BE0B6
:10078000012387F857303B1D18460021402201F015
:10079000D1F900233B6500BF0EE0134B1B681846E0
:1007A00000F0BAFA0246114BA3FB02135B094FF4A7
:1007B000FA7101FB03F3D31A97F8573083F0010362
:1007C000DBB2002B09D0084B1B68184600F0A4FAD6
:1007D000024640F6B7339A42AFD997F857301846D9
:1007E0005837BD4680BD00BF6CF40020D34D621069
:1007F00080B586B002AF0023FB603A1D0023009352
:10080000104648F2011100220023FFF753FEF86062
:1008100000F05EF90146FB683A1D084611461A468B
:1008200000F06CFCFB6818461037BD4680BD00BF69
:1008300080B485B000AF0023FB604FF00053BB6075
:100840000C4B7B600023FB600AE0BB681A1DBA609A
:100850007A68111D796012681A60FB680133FB60C9
:10086000FB68B3F5C05FF0D31437BD465DF8047B79
:10087000704700BF0030006080B582B000AF0B4B06
:100880007B604FF000531B683B603B6883F3088834
:10089000074A074B1B6843F001031360054B4FF0F9
:1008A00000529A607B681B689847FEE704000020AE
:1008B0000080034000ED00E080B500AFFFF7B8FF17
:1008C000FFF7DAFF80BD00BF80B582B000AF49F20C
:1008D00004037B604FF410431B683B603B6883F369
:1008E0000888044B4FF410429A607B681B68984755
:1008F000FEE700BF00ED00E080B582B000AF00234E
:100900007B6000233B600D4800214FF4807201F0B2
:1009100011F900233B6009E000F012F878607B6871
:10092000002B00D105E03B6801333B603B68022BA4
:10093000F2DD7B6818460837BD4680BD78F400209C
:1009400080B586B000AF0023FB7400237B610023D9
:10095000FB604FF48073BB604FF47C337B600023FB
:10096000FB60FB68022B10DC7B681A46BB681046F4
:1009700008491A4600F0CCFF0346FB74FB7C002BB1
:1009800000D102E0FB7C7B6100BF7B691846183711
:10099000BD4680BD78F4002080B58AB000AF786095
:1009A0000023FB7500237B6200233B620023FB6175
:1009B00000233B61324BFB600023BB600023BB6123
:1009C0007B68012B06D10023BB608023FB612D4B8C
:1009D000BB6116E07B68022B06D18023BB604023FD
:1009E000FB61294BBB610CE07B68032B06D1C02364
:1009F000BB604023FB61254BBB6102E04FF0FF333E
:100A00003AE0FA68BB6813443B6100233B622FE085
:100A10003A69FB691046B9691A46002300F0FCFDEB
:100A20000346FB75FB7D002B02D0FB7D052B0FD110
:100A30003A69FB69104613491A4600F081FF0346E4
:100A4000FB75FB7D002B02D0FB7D7B6213E012E087
:100A5000FB7D032B06D13A69FB691046194600F06D
:100A6000CFFE02E0FB7D7B6205E03B6A01333B6227
:100A70003B6A022BCCDD7B6A18462837BD4680BD19
:100A800000F0036078F40020F8F4002038F500202E
:100A900080B483B000AF00237B60054B1B687B6094
:100AA0007B6818460C37BD465DF8047B704700BF75
:100AB00078F4002080B483B000AF78607B68034A8C
:100AC00013600C37BD465DF8047B704778F4002056
:100AD00080B400AF024B1846BD465DF8047B7047FA
:100AE000B8F5002080B500AF154B0022DA66154B33
:100AF00000229A60FFF700FFFFF7CAFF0346642B4E
:100B000005D06420FFF7D6FF0120FFF745FFFFF770
:100B1000DFFF034618464FF46121032200F0CAFAB2
:100B200000F0DAF8084B09221A60084B084A1A60EC
:100B3000084B00221A60084B00221A6080BD00BFDB
:100B40000080034000ED00E00040005008400050ED
:100B50002C012C010C0000500800005080B483B020
:100B600000AF0346FB71084997F907305B09FA7932
:100B700002F01F02012000FA02F241F823200C3794
:100B8000BD465DF8047B704700E100E080B483B0AF
:100B900000AF0346FB71094997F907305B09FA7901
:100BA00002F01F02012000FA02F2203341F8232054
:100BB0000C37BD465DF8047B704700BF00E100E0E4
:100BC00080B483B000AF0346FB71094997F9073041
:100BD0005B09FA7902F01F02012000FA02F2603389
:100BE00041F823200C37BD465DF8047B704700BFF9
:100BF00000E100E080B582B000AF0346FB710E203B
:100C0000FFF7C4FF0F4A0F4B9B6C23F04003936424
:100C10004FF0402300225A650B4B0022C3F880217D
:100C2000094B0022C3F88821074AFB79C2F88431B6
:100C30004FF0402301221A610E20FFF7C1FF083751
:100C4000BD4680BD008003400000084280B400AF74
:100C5000034B0122C3F88021BD465DF8047B704739
:100C60000000084280B483B000AF78604FF04022AB
:100C70007B6853600C37BD465DF8047B704700BF4E
:100C800080B500AF034B0122C3F888210E20FFF787
:100C900065FF80BD0000084280B400AF4FF04023E4
:100CA00001221A61BFF34F8FBD465DF8047B704788
:100CB000684620F007018D4689B500AF054B1B68DB
:100CC0000133044A1360FFF7E7FFBD46BDE88940E2
:100CD0008546704770F4002080B582B000AF074BA6
:100CE0007B600020FFF786FF7868FFF7BBFFFFF708
:100CF000ADFFFFF7C5FF0837BD4680BDE02202000B
:100D000080B400AF034B1B681846BD465DF8047BFA
:100D1000704700BF70F4002090B585B000AF7860D8
:100D2000FFF7EEFF02467B689A4206D3FFF7E8FF23
:100D300002467B68D31AFB6006E07B68DC43FFF762
:100D4000DFFF0346E31AFB60FB6818461437BD4615
:100D500090BD00BF00F0704303EB8101C0F31300AE
:100D600001F10071400101230B50704700F0704306
:100D700003EB8101C0F3130001F100714001002376
:100D80000B50704700F0704303EB8101C0F3130078
:100D900001F1007140010858C0B270471E4B30B5D8
:100DA00098421A4603D01D4B984200D000BE0169FC
:100DB00001B900BE436903B900BE904202D0174A90
:100DC000904228D139B333B30268417B127DD2B24D
:100DD0001143920641730CD4826943699A421AD135
:100DE000BDE8304000234361006801210430FFF773
:100DF000BDBF82699B1A102B28BF102300229A4284
:100E0000EAD08469056901682C5D01320C70816942
:100E100001318161F3E730BDB8F5002078F500209D
:100E200010B504460068037A03F00F030C2B4BD86F
:100E3000DFE803F0074A090F0B4A0D4A4A4A4A4ABB
:100E40000B00A36A3BE0636A39E0236A37E0E36999
:100E500035E028300021FFF795FF28B1E36A0BB990
:100E600000BE01E020469847206801212830FFF7A6
:100E700089FF28B1236B0BB900BE01E020469847DB
:100E8000206802212830FFF77DFF28B1636B0BB982
:100E900000BE01E020469847206803212830FFF774
:100EA00071FF28B1A36B0BB900BE01E02046984743
:100EB000206804212830FFF765FF30B1E36B1BB1D8
:100EC0002046BDE81040184700BE10BD2DE9F8438C
:100ED000714B0446984298460E4617466F4B04D015
:100EE0006F4A904213D000BE11E04FF08042026082
:100EF0000A2202719A6C4FF4806142F080029A6477
:100F0000684AC2F880119A6C22F080020FE0664AAB
:100F10004FF4006122600B2222719A6C42F48072BD
:100F20009A64604AC2F880119A6C22F480729A64C2
:100F3000236800251D71236801211D722068083077
:100F4000FFF708FF206802210830FFF703FF206841
:100F500029460830FFF7FEFE206804211030FFF715
:100F600005FF206805211030FFF700FF20680121F0
:100F70003430FFF7FBFE206829463430FFF7F6FED9
:100F8000206801213830FFF7F1FE2068052130305C
:100F9000FFF7ECFE206806213030FFF7E7FE2068FF
:100FA00007213030FFF7E2FE206803213830FFF7D9
:100FB000DDFE2368444583F84450236883F8485095
:100FC000236883F84C5002D0354B9C4211D1A66067
:100FD000FFF7CEF944450CBF344B354B1B68DB00A3
:100FE000B3FBF6F94FEAD913B3F5803F4FEA590541
:100FF00001D300BE3CE0012B20685FFA83F823D9BF
:10100000A5EB8315A5EBC3134B440C300721A3EBD1
:101010004505FFF79FFE2268C9F3C73313712368A4
:10102000072183F8008020680C30FFF79FFE2068BE
:1010300007213030FFF78EFEFF2D00D900BE236858
:10104000EDB283F83C5013E00C300721FFF782FE2D
:10105000236800221A712368072183F80080206822
:101060000C30FFF783FE206807213030FFF77EFE4B
:1010700023681F73002327736373A6606361236172
:10108000A36123626362E361A362E3622363636338
:10109000A363E363BDE8F883B8F500200080034054
:1010A00078F5002000E100E00000014014F000208D
:1010B00018F000200E4B10B59842044603D00D4B9B
:1010C000984200D000BE2046FFF700FF20680321B1
:1010D0003030FFF74BFE206802213430FFF746FE28
:1010E000206800213830FFF741FE034B636210BDDA
:1010F000B8F5002078F500209D0D0000174BF0B5E5
:10110000984203D0164CA04200D000BE01B900BEE8
:1011100002B900BE984202D0114B98421DD1E1B1F4
:10112000DAB100240368457B1B7DDBB21D434573A8
:101130009D06F7D50F2A01EB040698BF13463546E6
:1011400088BF1023076815F801EB87F800E0AF1B94
:101150009F42F7D3D21A1C44E4D1F0BDB8F5002069
:1011600078F50020684620F007018D4601B5034858
:10117000FFF756FEBDE8014085467047B8F50020F0
:10118000684620F007018D4601B50348FFF748FE89
:10119000BDE801408546704778F500200F4B82B0CE
:1011A0001B681B0901930E4B53F820200123C2F842
:1011B000FC31D2F8FC11052907D0019B013B0193BA
:1011C000019B002BF2D1062005E0064983400A78F6
:1011D000002013430B7002B0704700BF1CF00020CA
:1011E000C01C000075F400200C4B1A78D10741BFD9
:1011F0000B4922F001020020C1F8FC0148BF1A701F
:101200001B789A0741BF074A0021C2F8FC11034A24
:1012100044BF23F002031370704700BF75F4002031
:101220000000086000000C60094B82B053F82030C9
:10123000D3F820210192019AD107F9D5D3F82021C2
:101240000192019AD207F9D5019802B0704700BF08
:10125000C01C000080292DE9F04303F07F0E02D16D
:101260000144044630E003F1C0449D0704EB82448E
:101270004FEA9E0C24F07F0418BF0CF1010C0025EE
:101280006545DFF868800AD054F8256005F120092B
:1012900058F822700135202D47F82960F0D10B4411
:1012A000C3F3840958F82260C9F1200C04EB8904C7
:1012B000002505EB090754F8253001352037654531
:1012C00046F82730F5D1CBE78C420BD0064B53F8CC
:1012D0002260C0EB0E03234414F8015B334483F80F
:1012E0008050F1E7BDE8F083C01C0000C81C00007E
:1012F000F0B5044609B14D1E00E00D464FF605005D
:101300009E4BD3F84C2192B282423AD1D3F8442179
:1013100049F6991349F699101340834223D002F0FD
:101320009003D70702F009004FEA131301D5DE0737
:1013300002D4934A01261670092807D0B4F5805FBD
:1013400004D2012840F0EF8001B1F0BD092B0AD092
:10135000A4F5F832B2F5805FC0F0E380894A28191D
:10136000904200F2DB802544B5F5003F01D3072011
:10137000F0BDA4F5FC33B3F5006FC0F0D480824B10
:10138000C6E0A2F57840861E022E38D8D3F8442154
:1013900049F6991349F699101340834223D002F07D
:1013A000900302F00900D2074FEA131301D5DF07BB
:1013B00002D4734A01261670092807D0B4F5805F5D
:1013C00004D2012840F0AF8001B1F0BD092B0AD052
:1013D000A4F57C32B2F5805FC0F0AE806B4A28196C
:1013E000904200F2A6802544B5F5802FBFD2A4F527
:1013F0007E33B3F5006FC0F09680654B88E04FF602
:101400000806B2422DD1D3F8440149F6991349F6A2
:1014100099120340934219D000F00902092A06D01C
:10142000B4F5805F03D2012A7DD100297BD100F47D
:101430001040030B092B09D0A4F57432B2F5805F7C
:10144000C0F08280534A281990427BD82544B5F5D4
:10145000802F8CD2A4F57833B3F5005F63D34E4B65
:1014600056E00638012857D8D3F8446149F6991355
:1014700049F69912334093423FD006F0900006F4AB
:10148000104706F0090E030906F41060F6074FEA4C
:1014900010224FEA173005D4B4F5802F0CD2384E05
:1014A00001273770BEF1090F06D0B4F5805F03D273
:1014B000BEF1010F37D1B1BB092808D0A4F5F6263B
:1014C000B6F5805F47D3354E2F19B74241D8092A68
:1014D00008D0A4F5F820B0F5805F43D330482E192A
:1014E00086423DD8092B08D0A4F5FA22B2F5805FD8
:1014F0003FD32C4A2819904239D82544B5F5002FFE
:10150000BFF435AFA4F5FC23B3F5005F0BD3264B36
:101510009D4201D99C4206D90020F0BD94423FF67D
:1015200022AF012B01D00120F0BD00293FF41BAFF9
:10153000F9E794423FF657AF012BF4D100293FF46D
:1015400052AFF0E7944281D8012BECD10029EAD1C7
:101550007CE7B442BBD80128E5D10029B7D0F0BD63
:101560008442BFD8012ADED10029BBD0DBE79442F8
:10157000C3D8012BD7D10029BFD0D4E700800340C6
:1015800074F40020FFEF0100FFF70100FFEF0300FC
:10159000FFF70300FFCF0300FFDF0300FFAF0700EB
:1015A000FFBF0700FFCF0700FFDF070042030AD499
:1015B000C3060AD410F00E0F09D110F0200F14BF8B
:1015C000052000207047012070470320704702204B
:1015D00070470000F8B50F4F0546B8420E4611D8C7
:1015E0000020FFF7DBFD044688B9013E3544BD42CB
:1015F0000DD90120FFF7D2FD0628044607D1FFF7D9
:10160000F3FD04E00120BDE8F840FFF7C7BD204628
:10161000F8BD00BFFFFF03002DE9F04FDFF8DCA1AC
:101620001F4600256F4B8AF800509046DA6887B055
:10163000029242F4FF520191DA606B4A8346904273
:1016400000F2BC80A0F5FF226849A2F2FF728A4234
:1016500040F2B480019A002A00F0AC80B8F1000F8B
:1016600000F0AA80022F00F2A980D3F84C414FF677
:101670000203C0F3120924F48032484641469A42DC
:1016800008BF2F46FFF734FE0646002840F0998039
:101690009AF80030012B03D1012F04BF2F460426F6
:1016A000A4B2A4F57843063B012B08D8B9F5802FE6
:1016B00009D209EB0803B3F5802F08D903E04FF6F0
:1016C00008039C4203D1012F04BF0426002748468B
:1016D0004146FFF77FFF0446002874D1C146C9EB9D
:1016E000080000EB0B03C3F31205EA0905EB09013F
:1016F0000132B2EBD11F9DBF03F07F03C3F1800322
:101700000093CDF800903A4BB5F5802F2CBF4FF0E9
:10171000010C4FF0000C53F82CA028BFA5F5802534
:10172000DAF8203162465B0348BFDAF85831009995
:1017300044BF43F00203CAF85831019BCDF80CC0F6
:1017400018442B46FFF786FD25F00063DDF80CC03A
:1017500023F07F0343F00063CAF840716046CAF883
:101760004831FFF761FD0590059A224BDDF80CC06A
:1017700013405BB925F0805525F07F0545F0805575
:10178000CAF848516046FFF74FFD059005981A4B7F
:10179000034013B1FFF70AFF044624B1052C02D021
:1017A000FFF722FD0FE0009B9945F9D9B9EB03093A
:1017B00095D1F5E7019E02E0464600E02E4607245B
:1017C00001E004462E460D4B00221A70054B029A8A
:1017D000DA6014B9042E08BF0424204607B0BDE81F
:1017E000F08F00BF00800340FEFF07600000F85F3D
:1017F000C01C00001E0004003E00040074F4002021
:101800002DE9F8433C4B8846DE6846F4FF52DA6027
:101810003A4B984269D8A0F5FF23394AA3F2FF73E7
:10182000934262D9002960D0C0F312052846FFF721
:101830005FFD0446002859D128464146FFF7CAFEFD
:101840000446002852D108F1FF38EF094544ED095C
:10185000AF4202D9FFF7C8FC48E0002C42D1B7F5EF
:10186000006F284B34BF0020012053F82020264968
:10187000D2F8203151F820C05B0348BFD2F858316C
:101880004FF0000144BF43F00203C2F85831FB019E
:1018900003F1C04EAEF1040E01F120085EF8049F82
:1018A000013120294CF82890F6D10021C2F84011CE
:1018B00023F0985123F0006321F07F0123F07F0390
:1018C00043F0006341F09851C2F84811C2F8483122
:1018D000FFF7AAFC0D4B034013B1FFF767FE044668
:1018E0000137B5E7052CBAD0B4E70724024B2046F0
:1018F000DE60BDE8F88300BF00800340FEFF0760A4
:101900000000F85FC01C0000C81C00003E0004007E
:1019100010B500237AB173B9541E02F1C042013AE6
:10192000825C0A55054AD2F8202112F4807F18BF44
:1019300007232246EEE7184610BD00BF00000860EE
:101940002DE9F04F814685B08A46C0F3120011465A
:101950009046FFF73FFE0746002845D1464616B998
:10196000FFF742FC40E0002FFAD1C6EB080000EB85
:101970000905C5F31204E309A2190133B3EBD21F21
:101980008EBF354605F07F05C5F18005B4F5802F83
:101990002ABF4FF0010B4FF0000BA4F5802429461D
:1019A000234650445A46FFF755FC114B24F080540F
:1019B00053F82B2024F07F0444F08054C2F84841AF
:1019C00058460192FFF730FC03900399094B0B40F6
:1019D00033B1019AD2F82001FFF7E8FD0746BEE7D0
:1019E000AE42BDD9761BBAE7384605B0BDE8F08FE8
:1019F000C01C00001E00040070B50F4E0F4D761B7A
:101A0000B61018BF002405D0013455F8043B9847A0
:101A1000A642F9D10A4E0B4D00F062F9761BB610C2
:101A200018BF002406D0013455F8043B9847A6425D
:101A3000F9D170BD70BD00BFF81C0000F81C00009B
:101A4000001D0000F81C0000844641EA000313F06A
:101A5000030349D1403A23D30B6803604B684360CA
:101A60008B688360CB68C3600B6903614B6943611A
:101A70008B698361CB69C3610B6A03624B6A436202
:101A80008B6A8362CB6AC3620B6B03634B6B4363EA
:101A90008B6B8363CB6BC36340304031403ADBD206
:101AA00030320BD30B6803604B6843608B688360F4
:101AB000CB68C36010301031103AF3D20C3205D32A
:101AC00051F8043B40F8043B043AF9D2043208D000
:101AD000D2071CBF11F8013B00F8013B01D30B8872
:101AE00003806046704700BF082A13D38B07B1D02C
:101AF00010F00303AED0C3F10403D21ADB071CBFFE
:101B000011F8013B00F8013BA4D331F8023B20F867
:101B1000023B9FE7043AD9D3013A11F8013B00F8A0
:101B2000013BF9D20B7803704B7843708B7883704C
:101B30006046704770B4840746D0541E002A41D0D6
:101B4000CDB2034602E0621EE4B3144603F8015B23
:101B50009A07F8D1032C2ED9CDB245EA05250F2CD2
:101B600045EA054519D9264603F11002103E0F2E0D
:101B700042F8105C42F80C5C42F8085C42F8045CE5
:101B800002F11002F2D8A4F1100222F00F0204F0C8
:101B90000F041032032C13440DD91E462246043A7A
:101BA000032A46F8045BFAD8221F22F0030204320B
:101BB000134404F003042CB1C9B21C4403F8011B04
:101BC000A342FBD170BC704714460346C2E700BF76
:101BD000024B13B1024800F005B870470000000046
:101BE000F11B0000014600200246034600F016B833
:101BF00038B5084B084DED1AAC1018BFED1805D0DC
:101C0000013C55F8043D9847002CF9D1BDE8384017
:101C100000F06CB8001D0000041D00002DE9F04725
:101C2000254C064625688846D5F84841924699468F
:101C3000C4B360681F2817DC411C76B104EB800335
:101C4000C3F888A0D4F88851012282401543022E9F
:101C5000C4F88851C3F808911ED0831C616000202D
:101C600044F82380BDE8F087144B03B34FF4C870E9
:101C7000AFF300800446D0B1D5F84831002784E89E
:101C800088003846C5F848410121C4F88871C4F875
:101C90008C71002EE1D0D1E7D4F88C311A43C4F80E
:101CA0008C21DAE705F5A674C5F84841C1E74FF085
:101CB000FF30BDE8F08700BFDC1C00000000000022
:101CC0000000086000000C600000086000000C606C
:101CD00000010001020203034300000020F0002085
:101CE000F8B500BFF8BC08BC9E467047F8B500BF09
:101CF000F8BC08BC9E467047D11B0000550400008C
:101D0000310400000000000000000000000000009E
:101D100000000000003B5808C00E1602801D2C0475
:101D2000003B5808003B5808003B5808003B580847
:101D3000000000000CF3002074F30020DCF300200E
:101D40000000000000000000000000000000000093
:101D50000000000000000000000000000000000083
:101D600000000000D81C000000000000000000007F
:101D70000000000000000000000000000000000063
:101D80000000000000000000000000000000000053
:101D90000000000000000000000000000000000043
:101DA0000000000000000000000000000000000033
:101DB0000000000000000000000000000000000023
:101DC0000000000000000000000000000000000013
:101DD0000000000000000000010000000000000002
:101DE0000E33CDAB34126DE6ECDE05000B000000C7
:101DF00000000000000000000000000000000000E3
:101E000000000000000000000000000000000000D2
:101E100000000000000000000000000000000000C2
:101E200000000000000000000000000000000000B2
:04000003000001896F
:00000001FF
